{
  "_format": "hh-sol-artifact-1",
  "contractName": "NotionalV1ToNotionalV2",
  "sourceName": "contracts/migrations/NotionalV1ToNotionalV2.sol",
  "abi": [
    {
      "inputs": [
        {
          "internalType": "contract IEscrow",
          "name": "escrow_",
          "type": "address"
        },
        {
          "internalType": "contract INotionalV1Erc1155",
          "name": "erc1155_",
          "type": "address"
        },
        {
          "internalType": "contract IERC20",
          "name": "wbtc_",
          "type": "address"
        },
        {
          "internalType": "uint16",
          "name": "v2Dai_",
          "type": "uint16"
        },
        {
          "internalType": "uint16",
          "name": "v2USDC_",
          "type": "uint16"
        },
        {
          "internalType": "uint16",
          "name": "v2WBTC_",
          "type": "uint16"
        }
      ],
      "stateMutability": "nonpayable",
      "type": "constructor"
    },
    {
      "inputs": [],
      "name": "Escrow",
      "outputs": [
        {
          "internalType": "contract IEscrow",
          "name": "",
          "type": "address"
        }
      ],
      "stateMutability": "view",
      "type": "function"
    },
    {
      "inputs": [],
      "name": "NotionalV1Erc1155",
      "outputs": [
        {
          "internalType": "contract INotionalV1Erc1155",
          "name": "",
          "type": "address"
        }
      ],
      "stateMutability": "view",
      "type": "function"
    },
    {
      "inputs": [],
      "name": "NotionalV2",
      "outputs": [
        {
          "internalType": "contract NotionalProxy",
          "name": "",
          "type": "address"
        }
      ],
      "stateMutability": "view",
      "type": "function"
    },
    {
      "inputs": [],
      "name": "V2_DAI",
      "outputs": [
        {
          "internalType": "uint16",
          "name": "",
          "type": "uint16"
        }
      ],
      "stateMutability": "view",
      "type": "function"
    },
    {
      "inputs": [],
      "name": "V2_ETH",
      "outputs": [
        {
          "internalType": "uint16",
          "name": "",
          "type": "uint16"
        }
      ],
      "stateMutability": "view",
      "type": "function"
    },
    {
      "inputs": [],
      "name": "V2_USDC",
      "outputs": [
        {
          "internalType": "uint16",
          "name": "",
          "type": "uint16"
        }
      ],
      "stateMutability": "view",
      "type": "function"
    },
    {
      "inputs": [],
      "name": "V2_WBTC",
      "outputs": [
        {
          "internalType": "uint16",
          "name": "",
          "type": "uint16"
        }
      ],
      "stateMutability": "view",
      "type": "function"
    },
    {
      "inputs": [],
      "name": "WBTC",
      "outputs": [
        {
          "internalType": "contract IERC20",
          "name": "",
          "type": "address"
        }
      ],
      "stateMutability": "view",
      "type": "function"
    },
    {
      "inputs": [],
      "name": "WETH",
      "outputs": [
        {
          "internalType": "contract WETH9",
          "name": "",
          "type": "address"
        }
      ],
      "stateMutability": "view",
      "type": "function"
    },
    {
      "inputs": [],
      "name": "enableWBTC",
      "outputs": [],
      "stateMutability": "nonpayable",
      "type": "function"
    },
    {
      "inputs": [
        {
          "internalType": "uint128",
          "name": "v1RepayAmount",
          "type": "uint128"
        },
        {
          "components": [
            {
              "internalType": "enum DepositActionType",
              "name": "actionType",
              "type": "uint8"
            },
            {
              "internalType": "uint16",
              "name": "currencyId",
              "type": "uint16"
            },
            {
              "internalType": "uint256",
              "name": "depositActionAmount",
              "type": "uint256"
            },
            {
              "internalType": "uint256",
              "name": "withdrawAmountInternalPrecision",
              "type": "uint256"
            },
            {
              "internalType": "bool",
              "name": "withdrawEntireCashBalance",
              "type": "bool"
            },
            {
              "internalType": "bool",
              "name": "redeemToUnderlying",
              "type": "bool"
            },
            {
              "internalType": "bytes32[]",
              "name": "trades",
              "type": "bytes32[]"
            }
          ],
          "internalType": "struct BalanceActionWithTrades[]",
          "name": "borrowAction",
          "type": "tuple[]"
        }
      ],
      "name": "migrateDaiEther",
      "outputs": [],
      "stateMutability": "nonpayable",
      "type": "function"
    },
    {
      "inputs": [
        {
          "internalType": "uint128",
          "name": "v1RepayAmount",
          "type": "uint128"
        },
        {
          "components": [
            {
              "internalType": "enum DepositActionType",
              "name": "actionType",
              "type": "uint8"
            },
            {
              "internalType": "uint16",
              "name": "currencyId",
              "type": "uint16"
            },
            {
              "internalType": "uint256",
              "name": "depositActionAmount",
              "type": "uint256"
            },
            {
              "internalType": "uint256",
              "name": "withdrawAmountInternalPrecision",
              "type": "uint256"
            },
            {
              "internalType": "bool",
              "name": "withdrawEntireCashBalance",
              "type": "bool"
            },
            {
              "internalType": "bool",
              "name": "redeemToUnderlying",
              "type": "bool"
            },
            {
              "internalType": "bytes32[]",
              "name": "trades",
              "type": "bytes32[]"
            }
          ],
          "internalType": "struct BalanceActionWithTrades[]",
          "name": "borrowAction",
          "type": "tuple[]"
        }
      ],
      "name": "migrateDaiWBTC",
      "outputs": [],
      "stateMutability": "nonpayable",
      "type": "function"
    },
    {
      "inputs": [
        {
          "internalType": "uint128",
          "name": "v1RepayAmount",
          "type": "uint128"
        },
        {
          "components": [
            {
              "internalType": "enum DepositActionType",
              "name": "actionType",
              "type": "uint8"
            },
            {
              "internalType": "uint16",
              "name": "currencyId",
              "type": "uint16"
            },
            {
              "internalType": "uint256",
              "name": "depositActionAmount",
              "type": "uint256"
            },
            {
              "internalType": "uint256",
              "name": "withdrawAmountInternalPrecision",
              "type": "uint256"
            },
            {
              "internalType": "bool",
              "name": "withdrawEntireCashBalance",
              "type": "bool"
            },
            {
              "internalType": "bool",
              "name": "redeemToUnderlying",
              "type": "bool"
            },
            {
              "internalType": "bytes32[]",
              "name": "trades",
              "type": "bytes32[]"
            }
          ],
          "internalType": "struct BalanceActionWithTrades[]",
          "name": "borrowAction",
          "type": "tuple[]"
        }
      ],
      "name": "migrateUSDCEther",
      "outputs": [],
      "stateMutability": "nonpayable",
      "type": "function"
    },
    {
      "inputs": [
        {
          "internalType": "uint128",
          "name": "v1RepayAmount",
          "type": "uint128"
        },
        {
          "components": [
            {
              "internalType": "enum DepositActionType",
              "name": "actionType",
              "type": "uint8"
            },
            {
              "internalType": "uint16",
              "name": "currencyId",
              "type": "uint16"
            },
            {
              "internalType": "uint256",
              "name": "depositActionAmount",
              "type": "uint256"
            },
            {
              "internalType": "uint256",
              "name": "withdrawAmountInternalPrecision",
              "type": "uint256"
            },
            {
              "internalType": "bool",
              "name": "withdrawEntireCashBalance",
              "type": "bool"
            },
            {
              "internalType": "bool",
              "name": "redeemToUnderlying",
              "type": "bool"
            },
            {
              "internalType": "bytes32[]",
              "name": "trades",
              "type": "bytes32[]"
            }
          ],
          "internalType": "struct BalanceActionWithTrades[]",
          "name": "borrowAction",
          "type": "tuple[]"
        }
      ],
      "name": "migrateUSDCWBTC",
      "outputs": [],
      "stateMutability": "nonpayable",
      "type": "function"
    },
    {
      "inputs": [
        {
          "internalType": "address",
          "name": "sender",
          "type": "address"
        },
        {
          "internalType": "address",
          "name": "account",
          "type": "address"
        },
        {
          "internalType": "bytes",
          "name": "callbackData",
          "type": "bytes"
        }
      ],
      "name": "notionalCallback",
      "outputs": [],
      "stateMutability": "nonpayable",
      "type": "function"
    },
    {
      "stateMutability": "payable",
      "type": "receive"
    }
  ],
  "bytecode": "0x6101806040523480156200001257600080fd5b5060405162001689380380620016898339810160408190526200003591620001c6565b6200004a620000d460201b62000ae51760201c565b6001600160a01b031660a0816001600160a01b031660601b815250506200007b6200014560201b62000b471760201c565b6001600160601b0319606091821b811660e05296811b871660805294851b861660c0529290931b909316610100526001600160f01b031960f093841b81166101205291831b82166101405290911b166101605262000267565b6000466001811415620000ec57600091505062000142565b602a8114156200011457730eae7badef8f95de91fddb74a89a786cf891eb0e91505062000142565b6105398114156200013d5773fa5f002555eb670019bd938604802f901208ae7191505062000142565b600080fd5b90565b6000466001811415620001705773c02aaa39b223fe8d0a0e5c4f27ead9083c756cc291505062000142565b602a811415620001985773d0a1e359811322d97991e03f863a0c30c2cf029c91505062000142565b6105398114156200013d57600091505062000142565b805161ffff81168114620001c157600080fd5b919050565b60008060008060008060c08789031215620001df578182fd5b8651620001ec816200024e565b6020880151909650620001ff816200024e565b604088015190955062000212816200024e565b93506200022260608801620001ae565b92506200023260808801620001ae565b91506200024260a08801620001ae565b90509295509295509295565b6001600160a01b03811681146200026457600080fd5b50565b60805160601c60a05160601c60c05160601c60e05160601c6101005160601c6101205160f01c6101405160f01c6101605160f01c6113756200031460003980610328528061041a5280610461525080610291525080610aa75250806103f652806109ea5250806107ed52806109b15250806102fd52806107545250806102b55280610381528061049e528061086952806109155280610a175250806102d9528061051552506113756000f3fe6080604052600436106100ec5760003560e01c8063964cdf831161008a578063bbea64b111610059578063bbea64b114610230578063bd018e8e14610245578063f22509521461025a578063fb1f18201461026f576100f3565b8063964cdf83146101bb578063a392a893146101db578063aa1a0cae146101fb578063ad5c46481461021b576100f3565b8063355e7f22116100c6578063355e7f221461015a5780633b683ba61461016f5780634dede3de146101915780635cc08748146101a6576100f3565b80630f792f60146100f857806319b53d351461012357806322f607f614610145576100f3565b366100f357005b600080fd5b34801561010457600080fd5b5061010d61028f565b60405161011a9190611298565b60405180910390f35b34801561012f57600080fd5b506101386102b3565b60405161011a919061104b565b34801561015157600080fd5b506101386102d7565b34801561016657600080fd5b506101386102fb565b34801561017b57600080fd5b5061018f61018a366004610dbd565b61031f565b005b34801561019d57600080fd5b506101386103f4565b3480156101b257600080fd5b5061010d610418565b3480156101c757600080fd5b5061018f6101d6366004610dbd565b61043c565b3480156101e757600080fd5b5061018f6101f6366004610dbd565b610458565b34801561020757600080fd5b5061018f610216366004610c63565b610493565b34801561022757600080fd5b506101386109af565b34801561023c57600080fd5b5061018f6109d3565b34801561025157600080fd5b5061010d610aa0565b34801561026657600080fd5b5061010d610aa5565b34801561027b57600080fd5b5061018f61028a366004610dbd565b610ac9565b7f000000000000000000000000000000000000000000000000000000000000000081565b7f000000000000000000000000000000000000000000000000000000000000000081565b7f000000000000000000000000000000000000000000000000000000000000000081565b7f000000000000000000000000000000000000000000000000000000000000000081565b600060028460037f000000000000000000000000000000000000000000000000000000000000000060405160200161035a94939291906112a7565b60408051601f1981840301815290829052635950d8e960e01b825291506001600160a01b037f00000000000000000000000000000000000000000000000000000000000000001690635950d8e9906103bc90339087908790879060040161105f565b600060405180830381600087803b1580156103d657600080fd5b505af11580156103ea573d6000803e3d6000fd5b5050505050505050565b7f000000000000000000000000000000000000000000000000000000000000000081565b7f000000000000000000000000000000000000000000000000000000000000000081565b60006002846000600160405160200161035a94939291906112a7565b600060018460037f000000000000000000000000000000000000000000000000000000000000000060405160200161035a94939291906112a7565b336001600160a01b037f0000000000000000000000000000000000000000000000000000000000000000161480156104d357506001600160a01b03841630145b6104f85760405162461bcd60e51b81526004016104ef90611269565b60405180910390fd5b600080808061050985870187610e3d565b935093509350935060007f00000000000000000000000000000000000000000000000000000000000000006001600160a01b031663c84aae17896040518263ffffffff1660e01b815260040161055f919061104b565b60006040518083038186803b15801561057757600080fd5b505afa15801561058b573d6000803e3d6000fd5b505050506040513d6000823e601f3d908101601f191682016040526105b39190810190610cec565b9050600061ffff8416156105df5781600361ffff16815181106105d257fe5b60200260200101516105f9565b81600061ffff16815181106105f057fe5b60200260200101515b905080600012801561061257506001600160801b038113155b61061b57600080fd5b604080516001808252818301909252600091816020015b61063a610baa565b815260200190600190039081610632575050604080516000808252602082019092529192509081610681565b61066e610bc1565b8152602001906001900390816106665790505b5060408051600180825281830190925291925060009190816020015b6106a5610bf3565b81526020019060019003908161069d57905050905060405180604001604052808a61ffff168152602001896001600160801b0316815250836000815181106106e957fe5b60200260200101819052506040518060600160405280306001600160a01b031681526020018861ffff168152602001856001600160801b03168152508160008151811061073257fe5b6020908102919091010152604051633c67b8f960e11b81526001600160a01b037f000000000000000000000000000000000000000000000000000000000000000016906378cf71f290610791908f9042908890889088906004016111c7565b600060405180830381600087803b1580156107ab57600080fd5b505af11580156107bf573d6000803e3d6000fd5b508695505050505061ffff85166001141590506108fe57604051632e1a7d4d60e01b81526001600160a01b037f00000000000000000000000000000000000000000000000000000000000000001690632e1a7d4d906108229084906004016112d6565b600060405180830381600087803b15801561083c57600080fd5b505af1158015610850573d6000803e3d6000fd5b5050604051632890fb6560e01b81526001600160a01b037f0000000000000000000000000000000000000000000000000000000000000000169250632890fb65915083906108a6908e9089908490600401611189565b6020604051808303818588803b1580156108bf57600080fd5b505af11580156108d3573d6000803e3d6000fd5b50505050506040513d601f19601f820116820180604052508101906108f89190610e90565b506109a2565b604051632890fb6560e01b81526001600160a01b037f00000000000000000000000000000000000000000000000000000000000000001690632890fb659061094e908d9088908690600401611189565b602060405180830381600087803b15801561096857600080fd5b505af115801561097c573d6000803e3d6000fd5b505050506040513d601f19601f820116820180604052508101906109a09190610e90565b505b5050505050505050505050565b7f000000000000000000000000000000000000000000000000000000000000000081565b60405163095ea7b360e01b81526001600160a01b037f0000000000000000000000000000000000000000000000000000000000000000169063095ea7b390610a43907f000000000000000000000000000000000000000000000000000000000000000090600019906004016111ae565b602060405180830381600087803b158015610a5d57600080fd5b505af1158015610a71573d6000803e3d6000fd5b505050506040513d601f19601f82011682018060405250810190610a959190610d9a565b610a9e57600080fd5b565b600181565b7f000000000000000000000000000000000000000000000000000000000000000081565b60006001846000600160405160200161035a94939291906112a7565b6000466001811415610afb576000915050610b44565b602a811415610b2157730eae7badef8f95de91fddb74a89a786cf891eb0e915050610b44565b6105398114156100f35773fa5f002555eb670019bd938604802f901208ae719150505b90565b6000466001811415610b705773c02aaa39b223fe8d0a0e5c4f27ead9083c756cc2915050610b44565b602a811415610b965773d0a1e359811322d97991e03f863a0c30c2cf029c915050610b44565b6105398114156100f3576000915050610b44565b604080518082019091526000808252602082015290565b6040805160a0810190915280600081526000602082018190526040820181905260608083019190915260809091015290565b604080516060810182526000808252602082018190529181019190915290565b80356001600160a01b0381168114610c2a57600080fd5b919050565b8035610c2a8161132e565b80356001600160801b0381168114610c2a57600080fd5b803561ffff81168114610c2a57600080fd5b60008060008060608587031215610c78578384fd5b610c8185610c13565b9350610c8f60208601610c13565b9250604085013567ffffffffffffffff80821115610cab578384fd5b818701915087601f830112610cbe578384fd5b813581811115610ccc578485fd5b886020828501011115610cdd578485fd5b95989497505060200194505050565b60006020808385031215610cfe578182fd5b825167ffffffffffffffff80821115610d15578384fd5b818501915085601f830112610d28578384fd5b815181811115610d3457fe5b83810260405185828201018181108582111715610d4d57fe5b604052828152858101935084860182860187018a1015610d6b578788fd5b8795505b83861015610d8d578051855260019590950194938601938601610d6f565b5098975050505050505050565b600060208284031215610dab578081fd5b8151610db68161132e565b9392505050565b600080600060408486031215610dd1578283fd5b610dda84610c3a565b9250602084013567ffffffffffffffff80821115610df6578384fd5b818601915086601f830112610e09578384fd5b813581811115610e17578485fd5b8760208083028501011115610e2a578485fd5b6020830194508093505050509250925092565b60008060008060808587031215610e52578384fd5b610e5b85610c51565b9350610e6960208601610c3a565b9250610e7760408601610c51565b9150610e8560608601610c51565b905092959194509250565b600060208284031215610ea1578081fd5b5051919050565b81835260006001600160fb1b03831115610ec0578081fd5b6020830280836020870137939093016020019283525090919050565b6000815180845260208085018081965082840281019150828601855b85811015610f71578284038952815160a0815160048110610f1557fe5b86528187015160ff168787015260408083015163ffffffff16908701526060808301516001600160801b031690870152608091820151918601819052610f5d81870183610fea565b9a87019a9550505090840190600101610ef8565b5091979650505050505050565b6000815180845260208085019450808401835b83811015610fd957815180516001600160a01b031688528381015161ffff16848901526040908101516001600160801b03169088015260609096019590820190600101610f91565b509495945050505050565b15159052565b60008151808452815b8181101561100f57602081850181015186830182015201610ff3565b818111156110205782602083870101525b50601f01601f19169290920160200192915050565b6007811061103f57fe5b9052565b61ffff169052565b6001600160a01b0391909116815260200190565b6001600160a01b038516815260606020808301829052828201859052600091906080908185018782028601830189865b8a81101561116657888303607f190184528135368d900360de190181126110b4578889fd5b8c0160e08135600781106110c6578a8bfd5b6110d08682611035565b506110dc878301610c51565b6110e888870182611043565b50604082810135908601528882013589860152611106888301610c2f565b61111289870182610fe4565b5060a0611120818401610c2f565b61112c82880182610fe4565b505060c061113c818401846112df565b935082828801526111508388018583610ea8565b978901979650505092860192505060010161108f565b5050868103604088015261117a8189610fea565b9b9a5050505050505050505050565b6001600160a01b0393909316835261ffff919091166020830152604082015260600190565b6001600160a01b03929092168252602082015260400190565b600060a0820160018060a01b0388168352602063ffffffff881681850152604060a08186015282885180855260c087019150838a019450855b81811015611232578551805161ffff1684528501516001600160801b0316858401529484019491830191600101611200565b505085810360608701526112468189610edc565b9350505050828103608084015261125d8185610f7e565b98975050505050505050565b602080825260159082015274556e617574686f72697a65642063616c6c6261636b60581b604082015260600190565b61ffff91909116815260200190565b61ffff94851681526001600160801b039390931660208401529083166040830152909116606082015260800190565b90815260200190565b6000808335601e198436030181126112f5578283fd5b830160208101925035905067ffffffffffffffff81111561131557600080fd5b60208102360383131561132757600080fd5b9250929050565b801515811461133c57600080fd5b5056fea264697066735822122061fa397692b1c1be5e4c5a166e16bbb5673e9701d9dacfb25149f425125d610f64736f6c63430007060033",
  "linkReferences": {},
  "deployedLinkReferences": {}
}