{
  "_format": "hh-sol-artifact-1",
  "contractName": "CompoundToNotionalV2",
  "sourceName": "contracts/migrations/CompoundToNotionalV2.sol",
  "abi": [
    {
      "inputs": [
        {
          "internalType": "contract NotionalProxy",
          "name": "notionalV2_",
          "type": "address"
        },
        {
          "internalType": "address",
          "name": "owner_",
          "type": "address"
        },
        {
          "internalType": "address",
          "name": "cETH_",
          "type": "address"
        }
      ],
      "stateMutability": "nonpayable",
      "type": "constructor"
    },
    {
      "inputs": [],
      "name": "NotionalV2",
      "outputs": [
        {
          "internalType": "contract NotionalProxy",
          "name": "",
          "type": "address"
        }
      ],
      "stateMutability": "view",
      "type": "function"
    },
    {
      "inputs": [],
      "name": "cETH",
      "outputs": [
        {
          "internalType": "address",
          "name": "",
          "type": "address"
        }
      ],
      "stateMutability": "view",
      "type": "function"
    },
    {
      "inputs": [
        {
          "internalType": "contract ICToken[]",
          "name": "cTokens",
          "type": "address[]"
        }
      ],
      "name": "enableTokens",
      "outputs": [],
      "stateMutability": "nonpayable",
      "type": "function"
    },
    {
      "inputs": [
        {
          "internalType": "address",
          "name": "cTokenBorrow",
          "type": "address"
        },
        {
          "internalType": "uint256",
          "name": "cTokenRepayAmount",
          "type": "uint256"
        },
        {
          "internalType": "uint16[]",
          "name": "notionalV2CollateralIds",
          "type": "uint16[]"
        },
        {
          "internalType": "uint256[]",
          "name": "notionalV2CollateralAmounts",
          "type": "uint256[]"
        },
        {
          "components": [
            {
              "internalType": "enum DepositActionType",
              "name": "actionType",
              "type": "uint8"
            },
            {
              "internalType": "uint16",
              "name": "currencyId",
              "type": "uint16"
            },
            {
              "internalType": "uint256",
              "name": "depositActionAmount",
              "type": "uint256"
            },
            {
              "internalType": "uint256",
              "name": "withdrawAmountInternalPrecision",
              "type": "uint256"
            },
            {
              "internalType": "bool",
              "name": "withdrawEntireCashBalance",
              "type": "bool"
            },
            {
              "internalType": "bool",
              "name": "redeemToUnderlying",
              "type": "bool"
            },
            {
              "internalType": "bytes32[]",
              "name": "trades",
              "type": "bytes32[]"
            }
          ],
          "internalType": "struct BalanceActionWithTrades[]",
          "name": "borrowAction",
          "type": "tuple[]"
        }
      ],
      "name": "migrateBorrowFromCompound",
      "outputs": [],
      "stateMutability": "nonpayable",
      "type": "function"
    },
    {
      "inputs": [],
      "name": "name",
      "outputs": [
        {
          "internalType": "string",
          "name": "",
          "type": "string"
        }
      ],
      "stateMutability": "view",
      "type": "function"
    },
    {
      "inputs": [
        {
          "internalType": "address",
          "name": "sender",
          "type": "address"
        },
        {
          "internalType": "address",
          "name": "account",
          "type": "address"
        },
        {
          "internalType": "bytes",
          "name": "callbackData",
          "type": "bytes"
        }
      ],
      "name": "notionalCallback",
      "outputs": [],
      "stateMutability": "nonpayable",
      "type": "function"
    },
    {
      "inputs": [],
      "name": "owner",
      "outputs": [
        {
          "internalType": "address",
          "name": "",
          "type": "address"
        }
      ],
      "stateMutability": "view",
      "type": "function"
    },
    {
      "stateMutability": "payable",
      "type": "receive"
    }
  ],
  "bytecode": "0x60e06040523480156200001157600080fd5b506040516200151f3803806200151f83398101604081905262000034916200005c565b6001600160601b0319606093841b811660805291831b821660a05290911b1660c052620000c8565b60008060006060848603121562000071578283fd5b83516200007e81620000af565b60208501519093506200009181620000af565b6040850151909250620000a481620000af565b809150509250925092565b6001600160a01b0381168114620000c557600080fd5b50565b60805160601c60a05160601c60c05160601c6113fe62000121600039806102fb52806104615250806101e0528061043d5250806101b35280610272528061048e52806106c3528061082e5280610a0a52506113fe6000f3fe6080604052600436106100745760003560e01c80638da5cb5b1161004e5780638da5cb5b1461010e578063a1b4d01114610123578063aa1a0cae14610138578063e009b2bc146101585761009a565b806306fdde031461009f57806319b53d35146100ca5780638c2de1a5146100ec5761009a565b3661009a5760405162461bcd60e51b815260040161009190611207565b60405180910390fd5b600080fd5b3480156100ab57600080fd5b506100b4610178565b6040516100c1919061119f565b60405180910390f35b3480156100d657600080fd5b506100df6101b1565b6040516100c19190610f67565b3480156100f857600080fd5b5061010c610107366004610e07565b6101d5565b005b34801561011a57600080fd5b506100df61043b565b34801561012f57600080fd5b506100df61045f565b34801561014457600080fd5b5061010c610153366004610cd3565b610483565b34801561016457600080fd5b5061010c610173366004610d60565b61090c565b6040518060400160405280601781526020017f436f6d706f756e6420746f204e6f74696f6e616c20563200000000000000000081525081565b7f000000000000000000000000000000000000000000000000000000000000000081565b336001600160a01b037f0000000000000000000000000000000000000000000000000000000000000000161461021d5760405162461bcd60e51b8152600401610091906111b2565b60005b8181101561043657600083838381811061023657fe5b905060200201602081019061024b9190610e63565b60405163095ea7b360e01b81529091506001600160a01b0382169063095ea7b39061029e907f000000000000000000000000000000000000000000000000000000000000000090600019906004016110ee565b602060405180830381600087803b1580156102b857600080fd5b505af11580156102cc573d6000803e3d6000fd5b505050506040513d601f19601f820116820180604052508101906102f09190610e47565b6102f957600080fd5b7f00000000000000000000000000000000000000000000000000000000000000006001600160a01b0316816001600160a01b03161461042d576000816001600160a01b0316636f307dc36040518163ffffffff1660e01b815260040160206040518083038186803b15801561036d57600080fd5b505afa158015610381573d6000803e3d6000fd5b505050506040513d601f19601f820116820180604052508101906103a59190610c33565b60405163095ea7b360e01b81529091506001600160a01b0382169063095ea7b3906103d8908590600019906004016110ee565b602060405180830381600087803b1580156103f257600080fd5b505af1158015610406573d6000803e3d6000fd5b505050506040513d601f19601f8201168201806040525081019061042a9190610e47565b50505b50600101610220565b505050565b7f000000000000000000000000000000000000000000000000000000000000000081565b7f000000000000000000000000000000000000000000000000000000000000000081565b336001600160a01b037f0000000000000000000000000000000000000000000000000000000000000000161480156104c357506001600160a01b03841630145b6104df5760405162461bcd60e51b8152600401610091906111d8565b60008080806104f085870187610c56565b93509350935093506000846001600160a01b0316636f307dc36040518163ffffffff1660e01b815260040160206040518083038186803b15801561053357600080fd5b505afa158015610547573d6000803e3d6000fd5b505050506040513d601f19601f8201168201806040525081019061056b9190610c33565b90506000816001600160a01b03166323b872dd8a30886040518463ffffffff1660e01b815260040161059f939291906110a5565b602060405180830381600087803b1580156105b957600080fd5b505af11580156105cd573d6000803e3d6000fd5b505050506040513d601f19601f820116820180604052508101906105f19190610e47565b9050806106105760405162461bcd60e51b815260040161009190611234565b6040516304c11f0360e31b81526000906001600160a01b03881690632608f81890610641908d908a906004016110ee565b602060405180830381600087803b15801561065b57600080fd5b505af115801561066f573d6000803e3d6000fd5b505050506040513d601f19601f820116820180604052508101906106939190610eb4565b905080156106b35760405162461bcd60e51b8152600401610091906112d2565b60005b85518110156108fe5760007f00000000000000000000000000000000000000000000000000000000000000006001600160a01b0316634ebad18e8884815181106106fc57fe5b60200260200101516040518263ffffffff1660e01b81526004016107209190611309565b6101406040518083038186803b15801561073957600080fd5b505afa15801561074d573d6000803e3d6000fd5b505050506040513d601f19601f820116820180604052508101906107719190610e7f565b50905080600001516001600160a01b03166323b872dd8d3089868151811061079557fe5b60200260200101516040518463ffffffff1660e01b81526004016107bb939291906110a5565b602060405180830381600087803b1580156107d557600080fd5b505af11580156107e9573d6000803e3d6000fd5b505050506040513d601f19601f8201168201806040525081019061080d9190610e47565b93508361082c5760405162461bcd60e51b8152600401610091906112a2565b7f00000000000000000000000000000000000000000000000000000000000000006001600160a01b031663b8a694558d89858151811061086857fe5b602002602001015189868151811061087c57fe5b60200260200101516040518463ffffffff1660e01b81526004016108a2939291906110c9565b602060405180830381600087803b1580156108bc57600080fd5b505af11580156108d0573d6000803e3d6000fd5b505050506040513d601f19601f820116820180604052508101906108f49190610eb4565b50506001016106b6565b505050505050505050505050565b825184511461091a57600080fd5b6040516305eff7ef60e21b81526000906001600160a01b038816906317bfdfbc90610949903390600401610f67565b602060405180830381600087803b15801561096357600080fd5b505af1158015610977573d6000803e3d6000fd5b505050506040513d601f19601f8201168201806040525081019061099b9190610eb4565b9050856109aa578095506109ca565b808611156109ca5760405162461bcd60e51b81526004016100919061126b565b6000878787876040516020016109e39493929190611107565b60408051601f1981840301815290829052635950d8e960e01b825291506001600160a01b037f00000000000000000000000000000000000000000000000000000000000000001690635950d8e990610a45903390889088908790600401610f7b565b600060405180830381600087803b158015610a5f57600080fd5b505af11580156108fe573d6000803e3d6000fd5b60008083601f840112610a84578182fd5b50813567ffffffffffffffff811115610a9b578182fd5b6020830191508360208083028501011115610ab557600080fd5b9250929050565b600082601f830112610acc578081fd5b81356020610ae1610adc8361133c565b611318565b8281528181019085830183850287018401881015610afd578586fd5b855b85811015610b2257610b1082610c21565b84529284019290840190600101610aff565b5090979650505050505050565b600082601f830112610b3f578081fd5b81356020610b4f610adc8361133c565b8281528181019085830183850287018401881015610b6b578586fd5b855b85811015610b2257813584529284019290840190600101610b6d565b8035610b94816113ba565b919050565b600060a08284031215610baa578081fd5b60405160a0810181811067ffffffffffffffff82111715610bc757fe5b80604052508091508251610bda816113a2565b81526020830151610bea816113ba565b602082015260408381015190820152606083015160058110610c0b57600080fd5b6060820152608092830151920191909152919050565b803561ffff81168114610b9457600080fd5b600060208284031215610c44578081fd5b8151610c4f816113a2565b9392505050565b60008060008060808587031215610c6b578283fd5b8435610c76816113a2565b935060208501359250604085013567ffffffffffffffff80821115610c99578384fd5b610ca588838901610abc565b93506060870135915080821115610cba578283fd5b50610cc787828801610b2f565b91505092959194509250565b60008060008060608587031215610ce8578384fd5b8435610cf3816113a2565b93506020850135610d03816113a2565b9250604085013567ffffffffffffffff80821115610d1f578384fd5b818701915087601f830112610d32578384fd5b813581811115610d40578485fd5b886020828501011115610d51578485fd5b95989497505060200194505050565b60008060008060008060a08789031215610d78578182fd5b8635610d83816113a2565b955060208701359450604087013567ffffffffffffffff80821115610da6578384fd5b610db28a838b01610abc565b95506060890135915080821115610dc7578384fd5b610dd38a838b01610b2f565b94506080890135915080821115610de8578384fd5b50610df589828a01610a73565b979a9699509497509295939492505050565b60008060208385031215610e19578182fd5b823567ffffffffffffffff811115610e2f578283fd5b610e3b85828601610a73565b90969095509350505050565b600060208284031215610e58578081fd5b8151610c4f816113ba565b600060208284031215610e74578081fd5b8135610c4f816113a2565b6000806101408385031215610e92578182fd5b610e9c8484610b99565b9150610eab8460a08501610b99565b90509250929050565b600060208284031215610ec5578081fd5b5051919050565b81835260006001600160fb1b03831115610ee4578081fd5b6020830280836020870137939093016020019283525090919050565b15159052565b60008151808452815b81811015610f2b57602081850181015186830182015201610f0f565b81811115610f3c5782602083870101525b50601f01601f19169290920160200192915050565b60078110610f5b57fe5b9052565b61ffff169052565b6001600160a01b0391909116815260200190565b6001600160a01b038516815260606020808301829052828201859052600091906080908185018782028601830189865b8a81101561108257888303607f190184528135368d900360de19018112610fd0578889fd5b8c0160e0813560078110610fe2578a8bfd5b610fec8682610f51565b50610ff8878301610c21565b61100488870182610f5f565b50604082810135908601528882013589860152611022888301610b89565b61102e89870182610f00565b5060a061103c818401610b89565b61104882880182610f00565b505060c06110588184018461135a565b9350828288015261106c8388018583610ecc565b9789019796505050928601925050600101610fab565b505086810360408801526110968189610f06565b9b9a5050505050505050505050565b6001600160a01b039384168152919092166020820152604081019190915260600190565b6001600160a01b0393909316835261ffff919091166020830152604082015260600190565b6001600160a01b03929092168252602082015260400190565b6001600160a01b0385168152602080820185905260806040830181905284519083018190526000918581019160a0850190845b8181101561115a57845161ffff168352938301939183019160010161113a565b505084810360608601528551808252908201925081860190845b8181101561119057825185529383019391830191600101611174565b50929998505050505050505050565b600060208252610c4f6020830184610f06565b6020808252600c908201526b155b985d5d1a1bdc9a5e995960a21b604082015260600190565b602080825260159082015274556e617574686f72697a65642063616c6c6261636b60581b604082015260600190565b602080825260139082015272086c2dcdcdee840e8e4c2dce6cccae4408aa89606b1b604082015260600190565b6020808252601c908201527f5472616e73666572206f662072657061796d656e74206661696c656400000000604082015260600190565b60208082526018908201527f496e76616c69642072657061796d656e7420616d6f756e740000000000000000604082015260600190565b60208082526016908201527518d51bdad95b881d1c985b9cd9995c8819985a5b195960521b604082015260600190565b6020808252601a908201527f526570617920626f72726f7720626568616c66206661696c6564000000000000604082015260600190565b61ffff91909116815260200190565b60405181810167ffffffffffffffff8111828210171561133457fe5b604052919050565b600067ffffffffffffffff82111561135057fe5b5060209081020190565b6000808335601e19843603018112611370578283fd5b830160208101925035905067ffffffffffffffff81111561139057600080fd5b602081023603831315610ab557600080fd5b6001600160a01b03811681146113b757600080fd5b50565b80151581146113b757600080fdfea2646970667358221220bd263314649d94b09e31e076c9c867fa9621ae98ea53d3cfb673fd4d805974be64736f6c63430007060033",
  "linkReferences": {},
  "deployedLinkReferences": {}
}