{
  "_format": "hh-sol-artifact-1",
  "contractName": "NotionalV2UniV3FlashLiquidator",
  "sourceName": "contracts/liquidations/NotionalV2UniV3FlashLiquidator.sol",
  "abi": [
    {
      "inputs": [
        {
          "internalType": "address",
          "name": "lendingPool_",
          "type": "address"
        },
        {
          "internalType": "address",
          "name": "addressProvider_",
          "type": "address"
        },
        {
          "internalType": "address",
          "name": "owner_",
          "type": "address"
        },
        {
          "internalType": "contract ISwapRouter",
          "name": "exchange_",
          "type": "address"
        }
      ],
      "stateMutability": "nonpayable",
      "type": "constructor"
    },
    {
      "inputs": [],
      "name": "ADDRESS_PROVIDER",
      "outputs": [
        {
          "internalType": "address",
          "name": "",
          "type": "address"
        }
      ],
      "stateMutability": "view",
      "type": "function"
    },
    {
      "inputs": [],
      "name": "LENDING_POOL",
      "outputs": [
        {
          "internalType": "address",
          "name": "",
          "type": "address"
        }
      ],
      "stateMutability": "view",
      "type": "function"
    },
    {
      "inputs": [],
      "name": "NotionalV2",
      "outputs": [
        {
          "internalType": "contract NotionalProxy",
          "name": "",
          "type": "address"
        }
      ],
      "stateMutability": "view",
      "type": "function"
    },
    {
      "inputs": [],
      "name": "OWNER",
      "outputs": [
        {
          "internalType": "address",
          "name": "",
          "type": "address"
        }
      ],
      "stateMutability": "view",
      "type": "function"
    },
    {
      "inputs": [],
      "name": "UniV3SwapRouter",
      "outputs": [
        {
          "internalType": "contract ISwapRouter",
          "name": "",
          "type": "address"
        }
      ],
      "stateMutability": "view",
      "type": "function"
    },
    {
      "inputs": [],
      "name": "WETH",
      "outputs": [
        {
          "internalType": "address",
          "name": "",
          "type": "address"
        }
      ],
      "stateMutability": "view",
      "type": "function"
    },
    {
      "inputs": [
        {
          "internalType": "address",
          "name": "token",
          "type": "address"
        },
        {
          "internalType": "address",
          "name": "spender",
          "type": "address"
        }
      ],
      "name": "approveToken",
      "outputs": [],
      "stateMutability": "nonpayable",
      "type": "function"
    },
    {
      "inputs": [],
      "name": "cETH",
      "outputs": [
        {
          "internalType": "address",
          "name": "",
          "type": "address"
        }
      ],
      "stateMutability": "view",
      "type": "function"
    },
    {
      "inputs": [
        {
          "internalType": "address[]",
          "name": "assets",
          "type": "address[]"
        },
        {
          "internalType": "uint256[]",
          "name": "amounts",
          "type": "uint256[]"
        },
        {
          "internalType": "uint256[]",
          "name": "premiums",
          "type": "uint256[]"
        },
        {
          "internalType": "address",
          "name": "initiator",
          "type": "address"
        },
        {
          "internalType": "bytes",
          "name": "params",
          "type": "bytes"
        }
      ],
      "name": "executeOperation",
      "outputs": [
        {
          "internalType": "bool",
          "name": "",
          "type": "bool"
        }
      ],
      "stateMutability": "nonpayable",
      "type": "function"
    },
    {
      "inputs": [
        {
          "internalType": "address",
          "name": "flashLender",
          "type": "address"
        },
        {
          "internalType": "address",
          "name": "receiverAddress",
          "type": "address"
        },
        {
          "internalType": "address[]",
          "name": "assets",
          "type": "address[]"
        },
        {
          "internalType": "uint256[]",
          "name": "amounts",
          "type": "uint256[]"
        },
        {
          "internalType": "uint256[]",
          "name": "modes",
          "type": "uint256[]"
        },
        {
          "internalType": "address",
          "name": "onBehalfOf",
          "type": "address"
        },
        {
          "internalType": "bytes",
          "name": "params",
          "type": "bytes"
        },
        {
          "internalType": "uint16",
          "name": "referralCode",
          "type": "uint16"
        }
      ],
      "name": "flashLoan",
      "outputs": [
        {
          "internalType": "uint256",
          "name": "",
          "type": "uint256"
        }
      ],
      "stateMutability": "nonpayable",
      "type": "function"
    },
    {
      "inputs": [
        {
          "internalType": "address",
          "name": "addressProvider_",
          "type": "address"
        }
      ],
      "name": "setAddressProvider",
      "outputs": [],
      "stateMutability": "nonpayable",
      "type": "function"
    },
    {
      "inputs": [
        {
          "internalType": "address",
          "name": "cToken",
          "type": "address"
        }
      ],
      "name": "setCTokenAddress",
      "outputs": [],
      "stateMutability": "nonpayable",
      "type": "function"
    },
    {
      "inputs": [
        {
          "internalType": "address",
          "name": "lendingPool_",
          "type": "address"
        }
      ],
      "name": "setLendingPool",
      "outputs": [],
      "stateMutability": "nonpayable",
      "type": "function"
    },
    {
      "inputs": [
        {
          "internalType": "address",
          "name": "token",
          "type": "address"
        },
        {
          "internalType": "uint256",
          "name": "amount",
          "type": "uint256"
        }
      ],
      "name": "withdraw",
      "outputs": [],
      "stateMutability": "nonpayable",
      "type": "function"
    },
    {
      "inputs": [],
      "name": "wrapToWETH",
      "outputs": [],
      "stateMutability": "nonpayable",
      "type": "function"
    },
    {
      "stateMutability": "payable",
      "type": "receive"
    }
  ],
  "bytecode": "0x6101006040523480156200001257600080fd5b5060405162003c5c38038062003c5c833981016040819052620000359162000245565b838383806200004e6200011860201b62000e711760201c565b6001600160a01b03166080816001600160a01b031660601b815250506200007f6200018960201b62000ed31760201c565b6001600160a01b031660a0816001600160a01b031660601b81525050620000b0620001f260201b62000f361760201c565b6001600160601b0319606091821b811660c052600180546001600160a01b039485166001600160a01b0319918216179091556002805497851697821697909717909655600380549590931694909516939093179055509190911b1660e05250620002c5915050565b60004660018114156200013057600091505062000186565b602a8114156200015857730eae7badef8f95de91fddb74a89a786cf891eb0e91505062000186565b610539811415620001815773fa5f002555eb670019bd938604802f901208ae7191505062000186565b600080fd5b90565b6000466001811415620001b45773c02aaa39b223fe8d0a0e5c4f27ead9083c756cc291505062000186565b602a811415620001dc5773d0a1e359811322d97991e03f863a0c30c2cf029c91505062000186565b6105398114156200018157600091505062000186565b60004660018114156200021d57734ddc2d193948926d02f9b1fe9e1daa0718270ed591505062000186565b602a811415620001dc577340575f9eb401f63f66f4c434248ad83d3441bf6191505062000186565b600080600080608085870312156200025b578384fd5b84516200026881620002ac565b60208601519094506200027b81620002ac565b60408601519093506200028e81620002ac565b6060860151909250620002a181620002ac565b939692955090935050565b6001600160a01b0381168114620002c257600080fd5b50565b60805160601c60a05160601c60c05160601c60e05160601c6139006200035c6000398061051d528061224a525080610d91528061120e5280611859525080610db552806110865280611121528061117b52806117ba528061189a5250806104ad5280610d24528061134b528061146352806115a752806116f15280611d095280611d445280611f04528061215852506139006000f3fe6080604052600436106100eb5760003560e01c80634afc7d491161008a578063a1b4d01111610059578063a1b4d01114610252578063ad5c464814610267578063b4dcfc771461027c578063f3fef3a314610291576100f2565b80634afc7d49146101db5780638a3843e0146101f0578063920f5c84146102055780639d15ec7e14610232576100f2565b8063117803e3116100c6578063117803e31461016f5780631848effa1461019157806319b53d35146101a65780631a5fa2e3146101bb576100f2565b80622ade00146100f757806303105b041461012d578063113aa8b11461014f576100f2565b366100f257005b600080fd5b34801561010357600080fd5b50610117610112366004612ab4565b6102b1565b6040516101249190613823565b60405180910390f35b34801561013957600080fd5b5061014d610148366004612a7c565b610409565b005b34801561015b57600080fd5b5061014d61016a366004612a44565b610441565b34801561017b57600080fd5b5061018461048d565b6040516101249190613348565b34801561019d57600080fd5b5061018461049c565b3480156101b257600080fd5b506101846104ab565b3480156101c757600080fd5b5061014d6101d6366004612a44565b6104cf565b3480156101e757600080fd5b5061018461051b565b3480156101fc57600080fd5b5061014d61053f565b34801561021157600080fd5b50610225610220366004612bf6565b610549565b60405161012491906136c7565b34801561023e57600080fd5b5061014d61024d366004612a44565b610c7f565b34801561025e57600080fd5b50610184610d8f565b34801561027357600080fd5b50610184610db3565b34801561028857600080fd5b50610184610dd7565b34801561029d57600080fd5b5061014d6102ac366004612bcb565b610de6565b6001546000906001600160a01b031633146102e75760405162461bcd60e51b81526004016102de90613758565b60405180910390fd5b60405163ab9c4b5d60e01b81526001600160a01b038e169063ab9c4b5d90610327908f908f908f908f908f908f908f908f908f908f908f9060040161335c565b600060405180830381600087803b15801561034157600080fd5b505af1158015610355573d6000803e3d6000fd5b505050508a8a600081811061036657fe5b905060200201602081019061037b9190612a44565b6001600160a01b03166370a08231306040518263ffffffff1660e01b81526004016103a69190613348565b60206040518083038186803b1580156103be57600080fd5b505afa1580156103d2573d6000803e3d6000fd5b505050506040513d601f19601f820116820180604052508101906103f69190612e1b565b90505b9c9b505050505050505050505050565b6001546001600160a01b031633146104335760405162461bcd60e51b81526004016102de90613758565b61043d8282610f85565b5050565b6001546001600160a01b0316331461046b5760405162461bcd60e51b81526004016102de90613758565b600280546001600160a01b0319166001600160a01b0392909216919091179055565b6001546001600160a01b031681565b6003546001600160a01b031681565b7f000000000000000000000000000000000000000000000000000000000000000081565b6001546001600160a01b031633146104f95760405162461bcd60e51b81526004016102de90613758565b600380546001600160a01b0319166001600160a01b0392909216919091179055565b7f000000000000000000000000000000000000000000000000000000000000000081565b610547611084565b565b6002546000906001600160a01b0316331461056357600080fd5b600061057183850185612e33565b60ff16600f81111561057f57fe5b905061058a816110fa565b61059a5761059a8b8b8b8b611114565b600881600f8111156105a857fe5b14806105bf5750600c81600f8111156105bd57fe5b145b806105d55750600081600f8111156105d357fe5b145b806105eb5750600481600f8111156105e957fe5b145b15610677576106728185858080601f016020809104026020016040519081016040528093929190818152602001838380828437600081840152601f19601f820116905080830192505050505050508d8d808060200260200160405190810160405280939291908181526020018383602002808284376000920191909152506112e592505050565b6108ff565b600981600f81111561068557fe5b148061069c5750600d81600f81111561069a57fe5b145b806106b25750600181600f8111156106b057fe5b145b806106c85750600581600f8111156106c657fe5b145b1561074f576106728185858080601f016020809104026020016040519081016040528093929190818152602001838380828437600081840152601f19601f820116905080830192505050505050508d8d808060200260200160405190810160405280939291908181526020018383602002808284376000920191909152506113f192505050565b600a81600f81111561075d57fe5b14806107745750600e81600f81111561077257fe5b145b8061078a5750600281600f81111561078857fe5b145b806107a05750600681600f81111561079e57fe5b145b15610827576106728185858080601f016020809104026020016040519081016040528093929190818152602001838380828437600081840152601f19601f820116905080830192505050505050508d8d8080602002602001604051908101604052809392919081815260200183836020028082843760009201919091525061155392505050565b600b81600f81111561083557fe5b148061084c5750600f81600f81111561084a57fe5b145b806108625750600381600f81111561086057fe5b145b806108785750600781600f81111561087657fe5b145b156108ff576108ff8185858080601f016020809104026020016040519081016040528093929190818152602001838380828437600081840152601f19601f820116905080830192505050505050508d8d8080602002602001604051908101604052809392919081815260200183836020028082843760009201919091525061168192505050565b6109098b8b6117ab565b600981600f81111561091757fe5b148061092e5750600d81600f81111561092c57fe5b145b806109445750600181600f81111561094257fe5b145b8061095a5750600581600f81111561095857fe5b145b806109705750600b81600f81111561096e57fe5b145b806109865750600f81600f81111561098457fe5b145b8061099c5750600381600f81111561099a57fe5b145b806109b25750600781600f8111156109b057fe5b145b15610a1d57610a1d818c8c60008181106109c857fe5b90506020020160208101906109dd9190612a44565b610a168a8a60008181106109ed57fe5b905060200201358d8d6000818110610a0157fe5b9050602002013561191090919063ffffffff16565b8787611973565b600881600f811115610a2b57fe5b1480610a425750600081600f811115610a4057fe5b145b80610a585750600981600f811115610a5657fe5b145b80610a6e5750600181600f811115610a6c57fe5b145b80610a845750600a81600f811115610a8257fe5b145b80610a9a5750600281600f811115610a9857fe5b145b80610ab05750600b81600f811115610aae57fe5b145b80610ac65750600381600f811115610ac457fe5b145b15610c6e5760008b8b6000818110610ada57fe5b9050602002016020810190610aef9190612a44565b6001600160a01b03166370a08231306040518263ffffffff1660e01b8152600401610b1a9190613348565b60206040518083038186803b158015610b3257600080fd5b505afa158015610b46573d6000803e3d6000fd5b505050506040513d601f19601f82011682018060405250810190610b6a9190612e1b565b9050610b9088886000818110610b7c57fe5b905060200201358b8b6000818110610a0157fe5b811115610c6c578b8b6000818110610ba457fe5b9050602002016020810190610bb99190612a44565b6001546001600160a01b039182169163a9059cbb9116610bfb610bf48c8c600081610be057fe5b905060200201358f8f6000818110610a0157fe5b8590611a9a565b6040518363ffffffff1660e01b8152600401610c189291906136ae565b602060405180830381600087803b158015610c3257600080fd5b505af1158015610c46573d6000803e3d6000fd5b505050506040513d601f19601f82011682018060405250810190610c6a9190612d62565b505b505b5060019a9950505050505050505050565b6001546001600160a01b03163314610ca95760405162461bcd60e51b81526004016102de90613758565b6000816001600160a01b0316636f307dc36040518163ffffffff1660e01b815260040160206040518083038186803b158015610ce457600080fd5b505afa158015610cf8573d6000803e3d6000fd5b505050506040513d601f19601f82011682018060405250810190610d1c9190612a60565b9050610d48827f0000000000000000000000000000000000000000000000000000000000000000610f85565b600254610d5f9082906001600160a01b0316610f85565b6001600160a01b0390811660009081526020819052604090208054919092166001600160a01b0319909116179055565b7f000000000000000000000000000000000000000000000000000000000000000081565b7f000000000000000000000000000000000000000000000000000000000000000081565b6002546001600160a01b031681565b60015460405163a9059cbb60e01b81526001600160a01b038481169263a9059cbb92610e1a929091169085906004016136ae565b602060405180830381600087803b158015610e3457600080fd5b505af1158015610e48573d6000803e3d6000fd5b505050506040513d601f19601f82011682018060405250810190610e6c9190612d62565b505050565b6000466001811415610e87576000915050610ed0565b602a811415610ead57730eae7badef8f95de91fddb74a89a786cf891eb0e915050610ed0565b6105398114156100f25773fa5f002555eb670019bd938604802f901208ae719150505b90565b6000466001811415610efc5773c02aaa39b223fe8d0a0e5c4f27ead9083c756cc2915050610ed0565b602a811415610f225773d0a1e359811322d97991e03f863a0c30c2cf029c915050610ed0565b6105398114156100f2576000915050610ed0565b6000466001811415610f5f57734ddc2d193948926d02f9b1fe9e1daa0718270ed5915050610ed0565b602a811415610f22577340575f9eb401f63f66f4c434248ad83d3441bf61915050610ed0565b60408051636eb1769f60e11b81523060048201526001600160a01b0383811660248301529151600160801b9285169163dd62ed3e916044808301926020929190829003018186803b158015610fd957600080fd5b505afa158015610fed573d6000803e3d6000fd5b505050506040513d602081101561100357600080fd5b5051101561043d57816001600160a01b031663095ea7b3826000196040518363ffffffff1660e01b815260040180836001600160a01b0316815260200182815260200192505050600060405180830381600087803b15801561106457600080fd5b505af1158015611078573d6000803e3d6000fd5b5050505061043d611af7565b7f00000000000000000000000000000000000000000000000000000000000000006001600160a01b031663d0e30db0476040518263ffffffff1660e01b81526004016000604051808303818588803b1580156110df57600080fd5b505af11580156110f3573d6000803e3d6000fd5b5050505050565b6000600882600f81111561110a57fe5b101590505b919050565b60005b838110156110f3577f00000000000000000000000000000000000000000000000000000000000000006001600160a01b031685858381811061115557fe5b905060200201602081019061116a9190612a44565b6001600160a01b0316141561124a577f00000000000000000000000000000000000000000000000000000000000000006001600160a01b0316632e1a7d4d8484848181106111b457fe5b905060200201356040518263ffffffff1660e01b81526004016111d79190613823565b600060405180830381600087803b1580156111f157600080fd5b505af1158015611205573d6000803e3d6000fd5b505050506112457f000000000000000000000000000000000000000000000000000000000000000084848481811061123957fe5b90506020020135611b75565b6112dd565b600080600087878581811061125b57fe5b90506020020160208101906112709190612a44565b6001600160a01b03908116825260208201929092526040016000205416905080156112db576112bf8686848181106112a457fe5b90506020020160208101906112b99190612a44565b82610f85565b6112db818585858181106112cf57fe5b90506020020135611bc4565b505b600101611117565b6000806000848060200190518101906112fe9190613087565b9350935093505061130e866110fa565b15611331576113318460008151811061132357fe5b602002602001015183611c82565b604051632d10e6eb60e01b81526000906001600160a01b037f00000000000000000000000000000000000000000000000000000000000000001690632d10e6eb9061138490879087908790600401613680565b6040805180830381600087803b15801561139d57600080fd5b505af11580156113b1573d6000803e3d6000fd5b505050506040513d601f19601f820116820180604052508101906113d59190612d82565b9150506113e88361ffff16826000611dd5565b50505050505050565b6000806000806000808780602001905181019061140e9190612f29565b985098505097509750509650965050611426896110fa565b15611449576114498760008151811061143b57fe5b602002602001015186611c82565b604051636633af3960e01b81526000906001600160a01b037f00000000000000000000000000000000000000000000000000000000000000001690636633af39906114a5908a908a908a90899089906001908a90600401613605565b606060405180830381600087803b1580156114bf57600080fd5b505af11580156114d3573d6000803e3d6000fd5b505050506040513d601f19601f820116820180604052508101906114f79190612da5565b9250505061150b8561ffff16826001611dd5565b61151484611f69565b60018561ffff16141561152957611529611084565b6115328a6110fa565b15611547576115478661ffff16600080611dd5565b50505050505050505050565b6000806000808580602001905181019061156d9190612fec565b94509450945094505061157f876110fa565b156115a2576115a28560008151811061159457fe5b602002602001015184611c82565b6000807f00000000000000000000000000000000000000000000000000000000000000006001600160a01b0316637fdebbf4878787876040518563ffffffff1660e01b81526004016115f79493929190613566565b600060405180830381600087803b15801561161157600080fd5b505af1158015611625573d6000803e3d6000fd5b505050506040513d6000823e601f3d908101601f1916820160405261164d9190810190612ccb565b915091506116768585846000851261166657600061166f565b61166f85611fee565b600061200f565b505050505050505050565b60008060008060008680602001905181019061169d9190612e4f565b98509850505096505095509550506116b4886110fa565b156116d7576116d7866000815181106116c957fe5b602002602001015185611c82565b60405163e816469d60e01b81526000906001600160a01b037f0000000000000000000000000000000000000000000000000000000000000000169063e816469d9061172e90899089908990899089906004016135b1565b600060405180830381600087803b15801561174857600080fd5b505af115801561175c573d6000803e3d6000fd5b505050506040513d6000823e601f3d908101601f191682016040526117849190810190612ccb565b5090506117968484836000600161200f565b60018461ffff16141561167657611676611084565b60005b81811015610e6c5760007f00000000000000000000000000000000000000000000000000000000000000006001600160a01b03168484848181106117ee57fe5b90506020020160208101906118039190612a44565b6001600160a01b0316146118575760008085858581811061182057fe5b90506020020160208101906118359190612a44565b6001600160a01b03908116825260208201929092526040016000205416611879565b7f00000000000000000000000000000000000000000000000000000000000000005b90506001600160a01b03811661188f5750611908565b61189881611f69565b7f00000000000000000000000000000000000000000000000000000000000000006001600160a01b03168484848181106118ce57fe5b90506020020160208101906118e39190612a44565b6001600160a01b03161480156118f95750600047115b1561190657611906611084565b505b6001016117ae565b60008282018381101561196a576040805162461bcd60e51b815260206004820152601b60248201527f536166654d6174683a206164646974696f6e206f766572666c6f770000000000604482015290519081900360640190fd5b90505b92915050565b60006060600987600f81111561198557fe5b148061199c5750600d87600f81111561199a57fe5b145b806119b25750600187600f8111156119b057fe5b145b806119c85750600587600f8111156119c657fe5b145b156119ed576119d9838501856131d1565b929a50919850611a08975050505050505050565b6119f9838501856130e5565b929a5091985050505050505050505b611a908287846001600160a01b03166370a08231306040518263ffffffff1660e01b8152600401611a399190613348565b60206040518083038186803b158015611a5157600080fd5b505afa158015611a65573d6000803e3d6000fd5b505050506040513d601f19601f82011682018060405250810190611a899190612e1b565b88856121ca565b5050505050505050565b600082821115611af1576040805162461bcd60e51b815260206004820152601e60248201527f536166654d6174683a207375627472616374696f6e206f766572666c6f770000604482015290519081900360640190fd5b50900390565b6000611b016127ab565b3d8015611b155760208114611b1e57600080fd5b60019250611b29565b60206000833e815192505b508161043d576040805162461bcd60e51b8152602060048201526016602482015275151bdad95b881bdc195c985d1a5bdb8819985a5b195960521b604482015290519081900360640190fd5b816001600160a01b0316631249c58b826040518263ffffffff1660e01b81526004016000604051808303818588803b158015611bb057600080fd5b505af11580156113e8573d6000803e3d6000fd5b6000826001600160a01b031663a0712d68836040518263ffffffff1660e01b815260040180828152602001915050602060405180830381600087803b158015611c0c57600080fd5b505af1158015611c20573d6000803e3d6000fd5b505050506040513d6020811015611c3657600080fd5b505190508015610e6c576040805162461bcd60e51b815260206004820152601260248201527122b93937b91d1026b4b73a1031aa37b5b2b760711b604482015290519081900360640190fd5b6040516370a0823160e01b81526000906001600160a01b038416906370a0823190611cb1903090600401613348565b60206040518083038186803b158015611cc957600080fd5b505afa158015611cdd573d6000803e3d6000fd5b505050506040513d601f19601f82011682018060405250810190611d019190612e1b565b9050611d2d837f0000000000000000000000000000000000000000000000000000000000000000610f85565b604051632890fb6560e01b81526001600160a01b037f00000000000000000000000000000000000000000000000000000000000000001690632890fb6590611d7d9030908690869060040161365b565b602060405180830381600087803b158015611d9757600080fd5b505af1158015611dab573d6000803e3d6000fd5b505050506040513d601f19601f82011682018060405250810190611dcf9190612e1b565b50505050565b604080516001808252818301909252600091816020015b611df46127c9565b815260200190600190039081611dec5790505090506001600160601b03831615611e1f576005611e22565b60005b81600081518110611e2f57fe5b6020026020010151600001906006811115611e4657fe5b90816006811115611e5357fe5b815250508381600081518110611e6557fe5b60200260200101516020019061ffff16908161ffff1681525050826001600160601b031681600081518110611e9657fe5b60200260200101516040018181525050600181600081518110611eb557fe5b602002602001015160800190151590811515815250508181600081518110611ed957fe5b602090810291909101015190151560a090910152604051633735195360e11b81526001600160a01b037f00000000000000000000000000000000000000000000000000000000000000001690636e6a32a690611f3b90309085906004016134ce565b600060405180830381600087803b158015611f5557600080fd5b505af1158015611a90573d6000803e3d6000fd5b611feb81826001600160a01b03166370a08231306040518263ffffffff1660e01b815260040180826001600160a01b0316815260200191505060206040518083038186803b158015611fba57600080fd5b505afa158015611fce573d6000803e3d6000fd5b505050506040513d6020811015611fe457600080fd5b50516122e1565b50565b60008082121561200857612001826123a1565b905061110f565b508061110f565b604080516001808252818301909252429160009190816020015b612031612800565b81526020019060019003908161202957905050905060008411612055576000612058565b60015b8160008151811061206557fe5b602002602001015160000190600681111561207c57fe5b9081600681111561208957fe5b81525050838160008151811061209b57fe5b6020026020010151604001818152505086816000815181106120b957fe5b60200260200101516020019061ffff16908161ffff16815250506001816000815181106120e257fe5b60200260200101516080019015159081151581525050828160008151811061210657fe5b602090810291909101015190151560a0909101526121258686846123af565b8160008151811061213257fe5b602090810291909101015160c00152604051630276b64b60e01b81526001600160a01b037f00000000000000000000000000000000000000000000000000000000000000001690630276b64b9061218f9030908590600401613409565b600060405180830381600087803b1580156121a957600080fd5b505af11580156121bd573d6000803e3d6000fd5b5050505050505050505050565b600080600080848060200190518101906121e49190612dd2565b60408051610100810182526001600160a01b03808f1682528d8116602083015262ffffff8616828401523060608301526080820185905260a082018d905260c082018c905280841660e0830152915163414bf38960e01b815294975092955090935090917f00000000000000000000000000000000000000000000000000000000000000009091169063414bf389906122819084906004016137ba565b602060405180830381600087803b15801561229b57600080fd5b505af11580156122af573d6000803e3d6000fd5b505050506040513d601f19601f820116820180604052508101906122d39190612e1b565b9a9950505050505050505050565b6000826001600160a01b031663db006a75836040518263ffffffff1660e01b815260040180828152602001915050602060405180830381600087803b15801561232957600080fd5b505af115801561233d573d6000803e3d6000fd5b505050506040513d602081101561235357600080fd5b505190508015610e6c576040805162461bcd60e51b815260206004820152601460248201527322b93937b91d102932b232b2b69031aa37b5b2b760611b604482015290519081900360640190fd5b600061196d600019836124ca565b606082518451146123ff576040805162461bcd60e51b81526020600482015260156024820152740a8e4c2c8ca4098cadccee8d0409ad2e6dac2e8c6d605b1b604482015290519081900360640190fd5b60008085516001600160401b038111801561241957600080fd5b50604051908082528060200260200182016040528015612443578160200160208202803683370190505b50905060005b85518110156124b95760008061248688848151811061246457fe5b60200260200101518a858151811061247857fe5b602002602001015189612518565b9150915080156124af578184868151811061249d57fe5b60209081029190910101526001909401935b5050600101612449565b508051919091038152949350505050565b8181026000198314156124fa578115806124ec5750828282816124e957fe5b05145b6124f557600080fd5b61196d565b82158061250f57508183828161250c57fe5b05145b61196d57600080fd5b6000808461252b575060009050806125aa565b60008061253a600787876125b2565b915091506a7fffffffffffffffffffff198713801561256357506a7fffffffffffffffffffff87125b61256c57600080fd5b6000871315612596576125898261258289611fee565b6000612672565b60019350935050506125aa565b612589826125a389611fee565b60006126be565b935093915050565b600080600085116125d55760405162461bcd60e51b81526004016102de906136d2565b60078511156125f65760405162461bcd60e51b81526004016102de90613728565b6000612601846126e9565b905060015b86811161265957600061262261261b83612707565b8490611910565b90508681141561263a57509250600091506125aa9050565b8681111561265057509250600191506125aa9050565b50600101612606565b5060405162461bcd60e51b81526004016102de9061378d565b6000806affffffffffffffffffffff60981b609885901b1660ff60f01b60f087901b1660f860015b60ff16901b1760ff1617176affffffffffffffffffffff1660001b90509392505050565b6000806affffffffffffffffffffff60981b609885901b1660ff60f01b60f087901b1660f88361269a565b60006276a7008210156126fb57600080fd5b506276a7008106900390565b6000816001141561271c57506276a70061110f565b816002141561272f575062ed4e0061110f565b816003141561274357506301da9c0061110f565b816004141561275757506303b5380061110f565b816005141561276b57506309450c0061110f565b816006141561277f575063128a180061110f565b81600714156127935750632514300061110f565b60405162461bcd60e51b81526004016102de90613701565b60405180602001604052806001906020820280368337509192915050565b6040805160c08101909152806000815260006020820181905260408201819052606082018190526080820181905260a09091015290565b6040805160e081019091528060008152602001600061ffff1681526020016000815260200160008152602001600015158152602001600015158152602001606081525090565b803561110f8161386c565b805161110f8161386c565b60008083601f84011261286d578182fd5b5081356001600160401b03811115612883578182fd5b602083019150836020808302850101111561289d57600080fd5b9250929050565b600082601f8301126128b4578081fd5b813560206128c96128c48361384f565b61382c565b82815281810190858301838502870184018810156128e5578586fd5b855b85811015612903578135845292840192908401906001016128e7565b5090979650505050505050565b600082601f830112612920578081fd5b815160206129306128c48361384f565b828152818101908583018385028701840188101561294c578586fd5b855b858110156129035781518452928401929084019060010161294e565b60008083601f84011261297b578182fd5b5081356001600160401b03811115612991578182fd5b60208301915083602082850101111561289d57600080fd5b600082601f8301126129b9578081fd5b81356001600160401b038111156129cc57fe5b6129df601f8201601f191660200161382c565b8181528460208386010111156129f3578283fd5b816020850160208301379081016020019190915292915050565b803561110f81613881565b803561110f81613896565b805161110f81613896565b803561110f816138a6565b803561110f816138b5565b600060208284031215612a55578081fd5b813561196a8161386c565b600060208284031215612a71578081fd5b815161196a8161386c565b60008060408385031215612a8e578081fd5b8235612a998161386c565b91506020830135612aa98161386c565b809150509250929050565b6000806000806000806000806000806000806101008d8f031215612ad6578788fd5b612adf8d612846565b9b50612aed60208e01612846565b9a506001600160401b0360408e01351115612b06578788fd5b612b168e60408f01358f0161285c565b909a5098506001600160401b0360608e01351115612b32578788fd5b612b428e60608f01358f0161285c565b90985096506001600160401b0360808e01351115612b5e578586fd5b612b6e8e60808f01358f0161285c565b9096509450612b7f60a08e01612846565b93506001600160401b0360c08e01351115612b98578283fd5b612ba88e60c08f01358f0161296a565b9093509150612bb960e08e01612a18565b90509295989b509295989b509295989b565b60008060408385031215612bdd578182fd5b8235612be88161386c565b946020939093013593505050565b600080600080600080600080600060a08a8c031215612c13578283fd5b89356001600160401b0380821115612c29578485fd5b612c358d838e0161285c565b909b50995060208c0135915080821115612c4d578485fd5b612c598d838e0161285c565b909950975060408c0135915080821115612c71578485fd5b612c7d8d838e0161285c565b909750955060608c01359150612c928261386c565b90935060808b01359080821115612ca7578384fd5b50612cb48c828d0161296a565b915080935050809150509295985092959850929598565b60008060408385031215612cdd578182fd5b82516001600160401b03811115612cf2578283fd5b8301601f81018513612d02578283fd5b80516020612d126128c48361384f565b82815281810190848301838502860184018a1015612d2e578788fd5b8795505b84861015612d50578051835260019590950194918301918301612d32565b50969091015195979596505050505050565b600060208284031215612d73578081fd5b8151801515811461196a578182fd5b60008060408385031215612d94578182fd5b505080516020909101519092909150565b600080600060608486031215612db9578081fd5b8351925060208401519150604084015190509250925092565b600080600060608486031215612de6578081fd5b835162ffffff81168114612df8578182fd5b602085015160408601519194509250612e108161386c565b809150509250925092565b600060208284031215612e2c578081fd5b5051919050565b600060208284031215612e44578081fd5b813561196a816138a6565b60008060008060008060008060006101208a8c031215612e6d578283fd5b8951612e78816138a6565b60208b0151909950612e898161386c565b9750612e9760408b01612a23565b9650612ea560608b01612851565b9550612eb360808b01612a23565b9450612ec160a08b01612851565b9350612ecf60c08b01612851565b925060e08a01516001600160401b0380821115612eea578384fd5b612ef68d838e01612910565b93506101008c0151915080821115612f0c578283fd5b50612f198c828d01612910565b9150509295985092959850929598565b60008060008060008060008060006101208a8c031215612f47578283fd5b8951612f52816138a6565b60208b0151909950612f638161386c565b60408b0151909850612f7481613896565b60608b0151909750612f858161386c565b60808b0151909650612f9681613896565b60a08b0151909550612fa78161386c565b60c08b0151909450612fb88161386c565b60e08b0151909350612fc981613881565b6101008b0151909250612fdb816138b5565b809150509295985092959850929598565b600080600080600060a08688031215613003578283fd5b855161300e816138a6565b602087015190955061301f8161386c565b604087015190945061303081613896565b60608701519093506001600160401b038082111561304c578283fd5b61305889838a01612910565b9350608088015191508082111561306d578283fd5b5061307a88828901612910565b9150509295509295909350565b6000806000806080858703121561309c578182fd5b84516130a7816138a6565b60208601519094506130b88161386c565b60408601519093506130c981613896565b60608601519092506130da816138b5565b939692955090935050565b6000806000806000806000806000806101408b8d031215613104578384fd5b61310d8b612a2e565b995061311b60208c01612846565b985060408b0135975061313060608c01612846565b965060808b0135955061314560a08c01612846565b945061315360c08c01612846565b935060e08b01356001600160401b038082111561316e578485fd5b61317a8e838f016128a4565b94506101008d0135915080821115613190578384fd5b61319c8e838f016128a4565b93506101208d01359150808211156131b2578283fd5b506131bf8d828e016129a9565b9150509295989b9194979a5092959850565b6000806000806000806000806000806101408b8d0312156131f0578384fd5b8a356131fb816138a6565b995060208b013561320b8161386c565b985060408b0135975060608b01356132228161386c565b965060808b0135955060a08b01356132398161386c565b945060c08b01356132498161386c565b935061325760e08c01612a0d565b92506132666101008c01612a39565b91506101208b01356001600160401b03811115613281578182fd5b6131bf8d828e016129a9565b6001600160a01b03169052565b6000815180845260208085019450808401835b838110156132c9578151875295820195908201906001016132ad565b509495945050505050565b81835260006001600160fb1b038311156132ec578081fd5b6020830280836020870137939093016020019283525090919050565b60008284528282602086013780602084860101526020601f19601f85011685010190509392505050565b6007811061333c57fe5b9052565b61ffff169052565b6001600160a01b0391909116815260200190565b6001600160a01b038c8116825260e06020830181905282018b90526000908c906101008401835b8e8110156133ac5783356133968161386c565b8316825260209384019390910190600101613383565b5084810360408601526133c0818d8f6132d4565b9250505082810360608401526133d781898b6132d4565b90506133e6608084018861328d565b82810360a08401526133f9818688613308565b9150506103f960c0830184613340565b6001600160a01b0383168152604060208083018290528351838301819052600092916060918286019080830287018401888401875b838110156134be57605f198a8403018552815160e061345e858351613332565b8188015161ffff1685890152898201518a860152888201518986015260808083015115159086015260a08083015115159086015260c0918201519185018190526134aa8186018361329a565b96880196945050509085019060010161343e565b50909a9950505050505050505050565b6001600160a01b03831681526040602080830182905283518383018190526000929160609182860190878301865b82811015613557578151613511858251613332565b8086015161ffff16858701528781015188860152868101518786015260808082015115159086015260a09081015115159085015260c090930192908401906001016134fc565b50919998505050505050505050565b6001600160a01b038516815261ffff841660208201526080604082018190526000906135949083018561329a565b82810360608401526135a6818561329a565b979650505050505050565b6001600160a01b038616815261ffff85811660208301528416604082015260a0606082018190526000906135e79083018561329a565b82810360808401526135f9818561329a565b98975050505050505050565b6001600160a01b0397909716875261ffff95861660208801529390941660408601526001600160801b039190911660608501526001600160601b0316608084015290151560a0830152151560c082015260e00190565b6001600160a01b0393909316835261ffff919091166020830152604082015260600190565b6001600160a01b0393909316835261ffff9190911660208301526001600160601b0316604082015260600190565b6001600160a01b03929092168252602082015260400190565b901515815260200190565b60208082526015908201527410d1ce881b9bc81b585c9ad95d1cc81b1a5cdd1959605a1b604082015260600190565b6020808252600d908201526c092dcecc2d8d2c840d2dcc8caf609b1b604082015260600190565b60208082526016908201527510d1ce881b585c9ad95d081a5b99195e08189bdd5b9960521b604082015260600190565b6020808252818101527f4f776e61626c653a2063616c6c6572206973206e6f7420746865206f776e6572604082015260600190565b60208082526013908201527210d1ce881b9bc81b585c9ad95d08199bdd5b99606a1b604082015260600190565b81516001600160a01b03908116825260208084015182169083015260408084015162ffffff16908301526060808401518216908301526080808401519083015260a0838101519083015260c0808401519083015260e09283015116918101919091526101000190565b90815260200190565b6040518181016001600160401b038111828210171561384757fe5b604052919050565b60006001600160401b0382111561386257fe5b5060209081020190565b6001600160a01b0381168114611feb57600080fd5b6001600160801b0381168114611feb57600080fd5b61ffff81168114611feb57600080fd5b60ff81168114611feb57600080fd5b6001600160601b0381168114611feb57600080fdfea264697066735822122010887ee4d7e9a43aea4663c77456f19d7db62110d53d1d6665572c229860222364736f6c63430007060033",
  "linkReferences": {},
  "deployedLinkReferences": {}
}