{
  "_format": "hh-sol-artifact-1",
  "contractName": "NotionalV2ifCashLiquidator",
  "sourceName": "contracts/liquidations/NotionalV2ifCashLiquidator.sol",
  "abi": [
    {
      "inputs": [
        {
          "internalType": "contract NotionalProxy",
          "name": "notionalV2_",
          "type": "address"
        },
        {
          "internalType": "uint16",
          "name": "IFCASH_CURRENCY_ID_",
          "type": "uint16"
        },
        {
          "internalType": "address",
          "name": "note_",
          "type": "address"
        },
        {
          "internalType": "address",
          "name": "ASSET_TOKEN_",
          "type": "address"
        },
        {
          "internalType": "address",
          "name": "UNDERLYING_TOKEN_",
          "type": "address"
        },
        {
          "internalType": "address",
          "name": "cETH_",
          "type": "address"
        }
      ],
      "stateMutability": "nonpayable",
      "type": "constructor"
    },
    {
      "inputs": [],
      "name": "ASSET_TOKEN",
      "outputs": [
        {
          "internalType": "address",
          "name": "",
          "type": "address"
        }
      ],
      "stateMutability": "view",
      "type": "function"
    },
    {
      "inputs": [],
      "name": "IFCASH_CURRENCY_ID",
      "outputs": [
        {
          "internalType": "uint16",
          "name": "",
          "type": "uint16"
        }
      ],
      "stateMutability": "view",
      "type": "function"
    },
    {
      "inputs": [],
      "name": "NOTE",
      "outputs": [
        {
          "internalType": "address",
          "name": "",
          "type": "address"
        }
      ],
      "stateMutability": "view",
      "type": "function"
    },
    {
      "inputs": [],
      "name": "NotionalV2",
      "outputs": [
        {
          "internalType": "contract NotionalProxy",
          "name": "",
          "type": "address"
        }
      ],
      "stateMutability": "view",
      "type": "function"
    },
    {
      "inputs": [],
      "name": "UNDERLYING_TOKEN",
      "outputs": [
        {
          "internalType": "address",
          "name": "",
          "type": "address"
        }
      ],
      "stateMutability": "view",
      "type": "function"
    },
    {
      "inputs": [
        {
          "internalType": "address",
          "name": "token",
          "type": "address"
        },
        {
          "internalType": "address",
          "name": "spender",
          "type": "address"
        }
      ],
      "name": "approveToken",
      "outputs": [],
      "stateMutability": "nonpayable",
      "type": "function"
    },
    {
      "inputs": [
        {
          "components": [
            {
              "internalType": "enum DepositActionType",
              "name": "actionType",
              "type": "uint8"
            },
            {
              "internalType": "uint16",
              "name": "currencyId",
              "type": "uint16"
            },
            {
              "internalType": "uint256",
              "name": "depositActionAmount",
              "type": "uint256"
            },
            {
              "internalType": "uint256",
              "name": "withdrawAmountInternalPrecision",
              "type": "uint256"
            },
            {
              "internalType": "bool",
              "name": "withdrawEntireCashBalance",
              "type": "bool"
            },
            {
              "internalType": "bool",
              "name": "redeemToUnderlying",
              "type": "bool"
            }
          ],
          "internalType": "struct BalanceAction[]",
          "name": "actions",
          "type": "tuple[]"
        }
      ],
      "name": "batchBalanceAction",
      "outputs": [],
      "stateMutability": "nonpayable",
      "type": "function"
    },
    {
      "inputs": [
        {
          "components": [
            {
              "internalType": "enum DepositActionType",
              "name": "actionType",
              "type": "uint8"
            },
            {
              "internalType": "uint16",
              "name": "currencyId",
              "type": "uint16"
            },
            {
              "internalType": "uint256",
              "name": "depositActionAmount",
              "type": "uint256"
            },
            {
              "internalType": "uint256",
              "name": "withdrawAmountInternalPrecision",
              "type": "uint256"
            },
            {
              "internalType": "bool",
              "name": "withdrawEntireCashBalance",
              "type": "bool"
            },
            {
              "internalType": "bool",
              "name": "redeemToUnderlying",
              "type": "bool"
            },
            {
              "internalType": "bytes32[]",
              "name": "trades",
              "type": "bytes32[]"
            }
          ],
          "internalType": "struct BalanceActionWithTrades[]",
          "name": "actions",
          "type": "tuple[]"
        }
      ],
      "name": "batchBalanceTradeAction",
      "outputs": [],
      "stateMutability": "nonpayable",
      "type": "function"
    },
    {
      "inputs": [],
      "name": "cETH",
      "outputs": [
        {
          "internalType": "address",
          "name": "",
          "type": "address"
        }
      ],
      "stateMutability": "view",
      "type": "function"
    },
    {
      "inputs": [],
      "name": "claimNOTE",
      "outputs": [
        {
          "internalType": "uint256",
          "name": "",
          "type": "uint256"
        }
      ],
      "stateMutability": "nonpayable",
      "type": "function"
    },
    {
      "inputs": [
        {
          "internalType": "address",
          "name": "target",
          "type": "address"
        },
        {
          "internalType": "uint256",
          "name": "value",
          "type": "uint256"
        },
        {
          "internalType": "bytes",
          "name": "data",
          "type": "bytes"
        }
      ],
      "name": "executeArbitrary",
      "outputs": [],
      "stateMutability": "nonpayable",
      "type": "function"
    },
    {
      "inputs": [],
      "name": "initialize",
      "outputs": [],
      "stateMutability": "nonpayable",
      "type": "function"
    },
    {
      "inputs": [
        {
          "components": [
            {
              "internalType": "enum DepositActionType",
              "name": "actionType",
              "type": "uint8"
            },
            {
              "internalType": "uint16",
              "name": "currencyId",
              "type": "uint16"
            },
            {
              "internalType": "uint256",
              "name": "depositActionAmount",
              "type": "uint256"
            },
            {
              "internalType": "uint256",
              "name": "withdrawAmountInternalPrecision",
              "type": "uint256"
            },
            {
              "internalType": "bool",
              "name": "withdrawEntireCashBalance",
              "type": "bool"
            },
            {
              "internalType": "bool",
              "name": "redeemToUnderlying",
              "type": "bool"
            },
            {
              "internalType": "bytes32[]",
              "name": "trades",
              "type": "bytes32[]"
            }
          ],
          "internalType": "struct BalanceActionWithTrades[]",
          "name": "actions",
          "type": "tuple[]"
        },
        {
          "internalType": "address",
          "name": "liquidateAccount",
          "type": "address"
        },
        {
          "internalType": "uint16",
          "name": "localCurrencyId",
          "type": "uint16"
        },
        {
          "internalType": "address",
          "name": "localCurrencyAssetToken",
          "type": "address"
        },
        {
          "internalType": "uint256[]",
          "name": "fCashMaturities",
          "type": "uint256[]"
        },
        {
          "internalType": "uint256[]",
          "name": "maxfCashLiquidateAmounts",
          "type": "uint256[]"
        },
        {
          "internalType": "bytes",
          "name": "dexTrade",
          "type": "bytes"
        },
        {
          "internalType": "bool",
          "name": "localHasTransferFee",
          "type": "bool"
        }
      ],
      "name": "liquidateCrossCurrencyfCash",
      "outputs": [],
      "stateMutability": "nonpayable",
      "type": "function"
    },
    {
      "inputs": [
        {
          "components": [
            {
              "internalType": "enum DepositActionType",
              "name": "actionType",
              "type": "uint8"
            },
            {
              "internalType": "uint16",
              "name": "currencyId",
              "type": "uint16"
            },
            {
              "internalType": "uint256",
              "name": "depositActionAmount",
              "type": "uint256"
            },
            {
              "internalType": "uint256",
              "name": "withdrawAmountInternalPrecision",
              "type": "uint256"
            },
            {
              "internalType": "bool",
              "name": "withdrawEntireCashBalance",
              "type": "bool"
            },
            {
              "internalType": "bool",
              "name": "redeemToUnderlying",
              "type": "bool"
            },
            {
              "internalType": "bytes32[]",
              "name": "trades",
              "type": "bytes32[]"
            }
          ],
          "internalType": "struct BalanceActionWithTrades[]",
          "name": "actions",
          "type": "tuple[]"
        },
        {
          "internalType": "address",
          "name": "liquidateAccount",
          "type": "address"
        },
        {
          "internalType": "uint256[]",
          "name": "fCashMaturities",
          "type": "uint256[]"
        },
        {
          "internalType": "uint256[]",
          "name": "maxfCashLiquidateAmounts",
          "type": "uint256[]"
        }
      ],
      "name": "liquidateLocalfCash",
      "outputs": [],
      "stateMutability": "nonpayable",
      "type": "function"
    },
    {
      "inputs": [
        {
          "internalType": "uint96",
          "name": "tokensToRedeem",
          "type": "uint96"
        },
        {
          "internalType": "bool",
          "name": "sellTokenAssets",
          "type": "bool"
        }
      ],
      "name": "nTokenRedeem",
      "outputs": [
        {
          "internalType": "int256",
          "name": "",
          "type": "int256"
        }
      ],
      "stateMutability": "nonpayable",
      "type": "function"
    },
    {
      "inputs": [],
      "name": "owner",
      "outputs": [
        {
          "internalType": "address",
          "name": "",
          "type": "address"
        }
      ],
      "stateMutability": "view",
      "type": "function"
    },
    {
      "inputs": [
        {
          "internalType": "address",
          "name": "newOwner",
          "type": "address"
        }
      ],
      "name": "transferOwnership",
      "outputs": [],
      "stateMutability": "nonpayable",
      "type": "function"
    },
    {
      "stateMutability": "payable",
      "type": "receive"
    }
  ],
  "bytecode": "0x6101406040523480156200001257600080fd5b506040516200233638038062002336833981016040819052620000359162000081565b606095861b6001600160601b031990811660805293861b841660c05260f09490941b6001600160f01b03191660a05290841b821661010052831b811660e052911b166101205262000132565b60008060008060008060c087890312156200009a578182fd5b8651620000a78162000119565b602088015190965061ffff81168114620000bf578283fd5b6040880151909550620000d28162000119565b6060880151909450620000e58162000119565b6080880151909350620000f88162000119565b60a08801519092506200010b8162000119565b809150509295509295509295565b6001600160a01b03811681146200012f57600080fd5b50565b60805160601c60a05160f01c60c05160601c60e05160601c6101005160601c6101205160601c6121306200020660003980610893528061122852508061108b52806113485250806103e352806107ea528061115052508061040752806105c2525080610c8b5280610e205280610f9b52806112c1528061136c5250806103bf52806104705280610514528061074852806109105280610aeb5280610b9d5280610c5a5280610d6e5280610df15280610f6e528061100a52806110ba528061117d5280611292528061145552506121306000f3fe6080604052600436106101025760003560e01c80637f56c2f411610095578063d557354211610064578063d557354214610266578063d706200514610286578063e60f2e811461029b578063f2fde38b146102bd578063fcfe28b7146102dd57610109565b80637f56c2f4146102075780638129fc1c146102275780638da5cb5b1461023c578063a1b4d0111461025157610109565b80633685d077116100d15780633685d077146101855780634ef3fc86146101a5578063679a3196146101c75780636de4a43b146101e757610109565b806303105b041461010e57806319b53d351461013057806329db1be61461015b5780632ff41e791461017057610109565b3661010957005b600080fd5b34801561011a57600080fd5b5061012e61012936600461175e565b6102fd565b005b34801561013c57600080fd5b506101456103bd565b6040516101529190611c42565b60405180910390f35b34801561016757600080fd5b506101456103e1565b34801561017c57600080fd5b50610145610405565b34801561019157600080fd5b5061012e6101a0366004611a94565b610429565b3480156101b157600080fd5b506101ba6104df565b6040516101529190611f87565b3480156101d357600080fd5b5061012e6101e2366004611796565b610659565b3480156101f357600080fd5b5061012e610202366004611980565b610710565b34801561021357600080fd5b5061012e6102223660046118d6565b610d21565b34801561023357600080fd5b5061012e610eb1565b34801561024857600080fd5b50610145611211565b34801561025d57600080fd5b50610145611226565b34801561027257600080fd5b506101ba610281366004611b6c565b61124a565b34801561029257600080fd5b50610145611346565b3480156102a757600080fd5b506102b061136a565b6040516101529190612030565b3480156102c957600080fd5b5061012e6102d836600461169d565b61138e565b3480156102e957600080fd5b5061012e6102f8366004611897565b61140e565b6000546201000090046001600160a01b031633146103365760405162461bcd60e51b815260040161032d90611ffb565b60405180910390fd5b60405163095ea7b360e01b81526001600160a01b0383169063095ea7b39061036690849060001990600401611f6e565b602060405180830381600087803b15801561038057600080fd5b505af1158015610394573d6000803e3d6000fd5b505050506040513d601f19601f820116820180604052508101906103b89190611b03565b505050565b7f000000000000000000000000000000000000000000000000000000000000000081565b7f000000000000000000000000000000000000000000000000000000000000000081565b7f000000000000000000000000000000000000000000000000000000000000000081565b6000546201000090046001600160a01b031633146104595760405162461bcd60e51b815260040161032d90611ffb565b604051633735195360e11b81526001600160a01b037f00000000000000000000000000000000000000000000000000000000000000001690636e6a32a6906104a990309086908690600401611d88565b600060405180830381600087803b1580156104c357600080fd5b505af11580156104d7573d6000803e3d6000fd5b505050505050565b600080546201000090046001600160a01b031633146105105760405162461bcd60e51b815260040161032d90611ffb565b60007f00000000000000000000000000000000000000000000000000000000000000006001600160a01b031663daca07a66040518163ffffffff1660e01b8152600401602060405180830381600087803b15801561056d57600080fd5b505af1158015610581573d6000803e3d6000fd5b505050506040513d601f19601f820116820180604052508101906105a59190611b1f565b60005460405163a9059cbb60e01b81529192506001600160a01b037f000000000000000000000000000000000000000000000000000000000000000081169263a9059cbb92610601926201000090910416908590600401611f6e565b602060405180830381600087803b15801561061b57600080fd5b505af115801561062f573d6000803e3d6000fd5b505050506040513d601f19601f820116820180604052508101906106539190611b03565b50905090565b6000546201000090046001600160a01b031633146106895760405162461bcd60e51b815260040161032d90611ffb565b6000846001600160a01b03168484846040516106a6929190611bf9565b60006040518083038185875af1925050503d80600081146106e3576040519150601f19603f3d011682016040523d82523d6000602084013e6106e8565b606091505b50509050806107095760405162461bcd60e51b815260040161032d90611f90565b5050505050565b6000546201000090046001600160a01b031633146107405760405162461bcd60e51b815260040161032d90611ffb565b8a156107c9577f00000000000000000000000000000000000000000000000000000000000000006001600160a01b0316630276b64b308e8e6040518463ffffffff1660e01b815260040161079693929190611c70565b600060405180830381600087803b1580156107b057600080fd5b505af11580156107c4573d6000803e3d6000fd5b505050505b811561087f57600080806107df858701876116b9565b92509250925061080f7f00000000000000000000000000000000000000000000000000000000000000008461148e565b6000836001600160a01b0316838360405161082a9190611c09565b60006040518083038185875af1925050503d8060008114610867576040519150601f19603f3d011682016040523d82523d6000602084013e61086c565b606091505b505090508061087a57600080fd5b505050505b8861ffff166001141561090b5760004790507f00000000000000000000000000000000000000000000000000000000000000006001600160a01b0316631249c58b826040518263ffffffff1660e01b81526004016000604051808303818588803b1580156108ec57600080fd5b505af1158015610900573d6000803e3d6000fd5b505050505050610c43565b6000807f00000000000000000000000000000000000000000000000000000000000000006001600160a01b0316634ebad18e8c6040518263ffffffff1660e01b815260040161095a9190612030565b6101406040518083038186803b15801561097357600080fd5b505afa158015610987573d6000803e3d6000fd5b505050506040513d601f19601f820116820180604052508101906109ab9190611b37565b90925090506001826060015160048111156109c257fe5b1415610ae35780516040516370a0823160e01b81526000916001600160a01b0316906370a08231906109f8903090600401611c42565b60206040518083038186803b158015610a1057600080fd5b505afa158015610a24573d6000803e3d6000fd5b505050506040513d601f19601f82011682018060405250810190610a489190611b1f565b90508015610ae15781518351610a5e919061148e565b825160405163140e25ad60e31b81526001600160a01b039091169063a0712d6890610a8d908490600401611f87565b602060405180830381600087803b158015610aa757600080fd5b505af1158015610abb573d6000803e3d6000fd5b505050506040513d601f19601f82011682018060405250810190610adf9190611b1f565b505b505b8151610b0f907f000000000000000000000000000000000000000000000000000000000000000061148e565b816020015115610c405781516040516370a0823160e01b81526000916001600160a01b0316906370a0823190610b49903090600401611c42565b60206040518083038186803b158015610b6157600080fd5b505afa158015610b75573d6000803e3d6000fd5b505050506040513d601f19601f82011682018060405250810190610b999190611b1f565b90507f00000000000000000000000000000000000000000000000000000000000000006001600160a01b031663b8a69455308e846040518463ffffffff1660e01b8152600401610beb93929190611e68565b602060405180830381600087803b158015610c0557600080fd5b505af1158015610c19573d6000803e3d6000fd5b505050506040513d601f19601f82011682018060405250810190610c3d9190611b1f565b50505b50505b60405163e816469d60e01b81526001600160a01b037f0000000000000000000000000000000000000000000000000000000000000000169063e816469d90610cbb908d908d907f0000000000000000000000000000000000000000000000000000000000000000908d908d908d908d90600401611f16565b600060405180830381600087803b158015610cd557600080fd5b505af1158015610ce9573d6000803e3d6000fd5b505050506040513d6000823e601f3d908101601f19168201604052610d1191908101906117ef565b5050505050505050505050505050565b6000546201000090046001600160a01b03163314610d515760405162461bcd60e51b815260040161032d90611ffb565b8515610dda57604051630276b64b60e01b81526001600160a01b037f00000000000000000000000000000000000000000000000000000000000000001690630276b64b90610da79030908b908b90600401611c70565b600060405180830381600087803b158015610dc157600080fd5b505af1158015610dd5573d6000803e3d6000fd5b505050505b604051631ff7aefd60e21b81526001600160a01b037f00000000000000000000000000000000000000000000000000000000000000001690637fdebbf490610e509088907f0000000000000000000000000000000000000000000000000000000000000000908990899089908990600401611ec7565b600060405180830381600087803b158015610e6a57600080fd5b505af1158015610e7e573d6000803e3d6000fd5b505050506040513d6000823e601f3d908101601f19168201604052610ea691908101906117ef565b505050505050505050565b600054610100900460ff1680610eca5750610eca61154c565b80610ed8575060005460ff16155b610f135760405162461bcd60e51b815260040180806020018281038252602e8152602001806120cd602e913960400191505060405180910390fd5b600054610100900460ff16158015610f3e576000805460ff1961ff0019909116610100171660011790555b6000805462010000600160b01b0319163362010000021790556040516309c9794560e41b81526001600160a01b037f00000000000000000000000000000000000000000000000000000000000000001690639c97945090610fc3907f000000000000000000000000000000000000000000000000000000000000000090600401612030565b600060405180830381600087803b158015610fdd57600080fd5b505af1158015610ff1573d6000803e3d6000fd5b505060405163a22cb46560e01b81526001600160a01b037f000000000000000000000000000000000000000000000000000000000000000016925063a22cb4659150611044903390600190600401611e4d565b600060405180830381600087803b15801561105e57600080fd5b505af1158015611072573d6000803e3d6000fd5b505060405163095ea7b360e01b81526001600160a01b037f000000000000000000000000000000000000000000000000000000000000000016925063095ea7b391506110e6907f00000000000000000000000000000000000000000000000000000000000000009060001990600401611f6e565b602060405180830381600087803b15801561110057600080fd5b505af1158015611114573d6000803e3d6000fd5b505050506040513d601f19601f820116820180604052508101906111389190611b03565b5060405163095ea7b360e01b81526001600160a01b037f0000000000000000000000000000000000000000000000000000000000000000169063095ea7b3906111a9907f00000000000000000000000000000000000000000000000000000000000000009060001990600401611f6e565b602060405180830381600087803b1580156111c357600080fd5b505af11580156111d7573d6000803e3d6000fd5b505050506040513d601f19601f820116820180604052508101906111fb9190611b03565b50801561120e576000805461ff00191690555b50565b6000546201000090046001600160a01b031681565b7f000000000000000000000000000000000000000000000000000000000000000081565b600080546201000090046001600160a01b0316331461127b5760405162461bcd60e51b815260040161032d90611ffb565b604051630875a0db60e31b81526001600160a01b037f000000000000000000000000000000000000000000000000000000000000000016906343ad06d8906112ed9030907f00000000000000000000000000000000000000000000000000000000000000009088908890600401611e8d565b602060405180830381600087803b15801561130757600080fd5b505af115801561131b573d6000803e3d6000fd5b505050506040513d601f19601f8201168201806040525081019061133f9190611b1f565b9392505050565b7f000000000000000000000000000000000000000000000000000000000000000081565b7f000000000000000000000000000000000000000000000000000000000000000081565b6000546201000090046001600160a01b031633146113be5760405162461bcd60e51b815260040161032d90611ffb565b6001600160a01b0381166113e45760405162461bcd60e51b815260040161032d90611fb5565b600080546001600160a01b03909216620100000262010000600160b01b0319909216919091179055565b6000546201000090046001600160a01b0316331461143e5760405162461bcd60e51b815260040161032d90611ffb565b604051630276b64b60e01b81526001600160a01b037f00000000000000000000000000000000000000000000000000000000000000001690630276b64b906104a990309086908690600401611c70565b604051636eb1769f60e11b8152600160801b906001600160a01b0384169063dd62ed3e906114c29030908690600401611c56565b60206040518083038186803b1580156114da57600080fd5b505afa1580156114ee573d6000803e3d6000fd5b505050506040513d601f19601f820116820180604052508101906115129190611b1f565b10156115485760405163095ea7b360e01b81526001600160a01b0383169063095ea7b39061036690849060001990600401611f6e565b5050565b60006115573061155d565b15905090565b803b15155b919050565b8035611562816120a9565b60008083601f840112611583578182fd5b5081356001600160401b03811115611599578182fd5b60208301915083602080830285010111156115b357600080fd5b9250929050565b8035611562816120be565b60008083601f8401126115d6578182fd5b5081356001600160401b038111156115ec578182fd5b6020830191508360208285010111156115b357600080fd5b600060a08284031215611615578081fd5b60405160a081018181106001600160401b038211171561163157fe5b80604052508091508251611644816120a9565b81526020830151611654816120be565b60208201526040838101519082015260608301516005811061167557600080fd5b6060820152608092830151920191909152919050565b803561ffff8116811461156257600080fd5b6000602082840312156116ae578081fd5b813561133f816120a9565b6000806000606084860312156116cd578182fd5b83356116d8816120a9565b9250602084810135925060408501356001600160401b03808211156116fb578384fd5b818701915087601f83011261170e578384fd5b81358181111561171a57fe5b61172c601f8201601f1916850161203f565b91508082528884828501011115611741578485fd5b808484018584013784848284010152508093505050509250925092565b60008060408385031215611770578182fd5b823561177b816120a9565b9150602083013561178b816120a9565b809150509250929050565b600080600080606085870312156117ab578081fd5b84356117b6816120a9565b93506020850135925060408501356001600160401b038111156117d7578182fd5b6117e3878288016115c5565b95989497509550505050565b60008060408385031215611801578182fd5b82516001600160401b0380821115611817578384fd5b818501915085601f83011261182a578384fd5b815160208282111561183857fe5b808202925061184881840161203f565b8281528181019085830185870184018b1015611862578889fd5b8896505b84871015611884578051835260019690960195918301918301611866565b5097909101519698969750505050505050565b600080602083850312156118a9578182fd5b82356001600160401b038111156118be578283fd5b6118ca85828601611572565b90969095509350505050565b60008060008060008060006080888a0312156118f0578485fd5b87356001600160401b0380821115611906578687fd5b6119128b838c01611572565b909950975060208a01359150611927826120a9565b9095506040890135908082111561193c578485fd5b6119488b838c01611572565b909650945060608a0135915080821115611960578384fd5b5061196d8a828b01611572565b989b979a50959850939692959293505050565b6000806000806000806000806000806000806101008d8f0312156119a2578586fd5b6001600160401b038d3511156119b6578586fd5b6119c38e8e358f01611572565b909c509a506119d460208e01611567565b99506119e260408e0161168b565b98506119f060608e01611567565b97506001600160401b0360808e01351115611a09578586fd5b611a198e60808f01358f01611572565b90975095506001600160401b0360a08e01351115611a35578485fd5b611a458e60a08f01358f01611572565b90955093506001600160401b0360c08e01351115611a61578283fd5b611a718e60c08f01358f016115c5565b9093509150611a8260e08e016115ba565b90509295989b509295989b509295989b565b60008060208385031215611aa6578182fd5b82356001600160401b0380821115611abc578384fd5b818501915085601f830112611acf578384fd5b813581811115611add578485fd5b86602060c083028501011115611af1578485fd5b60209290920196919550909350505050565b600060208284031215611b14578081fd5b815161133f816120be565b600060208284031215611b30578081fd5b5051919050565b6000806101408385031215611b4a578182fd5b611b548484611604565b9150611b638460a08501611604565b90509250929050565b60008060408385031215611b7e578182fd5b82356bffffffffffffffffffffffff81168114611b99578283fd5b9150602083013561178b816120be565b81835260006001600160fb1b03831115611bc1578081fd5b6020830280836020870137939093016020019283525090919050565b15159052565b60078110611bed57fe5b9052565b61ffff169052565b6000828483379101908152919050565b60008251815b81811015611c295760208186018101518583015201611c0f565b81811115611c375782828501525b509190910192915050565b6001600160a01b0391909116815260200190565b6001600160a01b0392831681529116602082015260400190565b6001600160a01b038416815260406020808301829052828201849052600091906060908185018682028601830188865b89811015611d7857888303605f190184528135368c900360de19018112611cc5578889fd5b8b0160e0813560078110611cd7578a8bfd5b611ce18682611be3565b50611ced87830161168b565b611cf988870182611bf1565b50888201358986015287820135888601526080611d178184016115ba565b611d2382880182611bdd565b505060a0611d328184016115ba565b611d3e82880182611bdd565b505060c0611d4e81840184612062565b93508282880152611d628388018583611ba9565b9789019796505050928601925050600101611ca0565b50909a9950505050505050505050565b6001600160a01b0384168152604060208083018290528282018490526000919060609081850187855b88811015611e3e57813560078110611dc7578788fd5b611dd18482611be3565b5061ffff611de085840161168b565b1684840152858201358684015284820135858401526080611e028184016115ba565b611e0e82860182611bdd565b505060a0611e1d8184016115ba565b611e2982860182611bdd565b505060c0928301929190910190600101611db1565b50909998505050505050505050565b6001600160a01b039290921682521515602082015260400190565b6001600160a01b0393909316835261ffff919091166020830152604082015260600190565b6001600160a01b0394909416845261ffff9290921660208401526bffffffffffffffffffffffff1660408301521515606082015260800190565b6001600160a01b038716815261ffff86166020820152608060408201819052600090611ef69083018688611ba9565b8281036060840152611f09818587611ba9565b9998505050505050505050565b6001600160a01b038816815261ffff87811660208301528616604082015260a060608201819052600090611f4d9083018688611ba9565b8281036080840152611f60818587611ba9565b9a9950505050505050505050565b6001600160a01b03929092168252602082015260400190565b90815260200190565b6020808252600b908201526a10d85b1b0819985a5b195960aa1b604082015260600190565b60208082526026908201527f4f776e61626c653a206e6577206f776e657220697320746865207a65726f206160408201526564647265737360d01b606082015260800190565b6020808252818101527f4f776e61626c653a2063616c6c6572206973206e6f7420746865206f776e6572604082015260600190565b61ffff91909116815260200190565b6040518181016001600160401b038111828210171561205a57fe5b604052919050565b6000808335601e19843603018112612078578283fd5b83016020810192503590506001600160401b0381111561209757600080fd5b6020810236038313156115b357600080fd5b6001600160a01b038116811461120e57600080fd5b801515811461120e57600080fdfe496e697469616c697a61626c653a20636f6e747261637420697320616c726561647920696e697469616c697a6564a264697066735822122042f0f397eef973ae6067a599afab4cd67d3b37c57d1f764646d7f0439257aff664736f6c63430007060033",
  "linkReferences": {},
  "deployedLinkReferences": {}
}